:100000000C948D030C94C5030C94C5030C94C50388
:100010000C94C5030C94C5030C94C5030C94C50340
:100020000C94C5030C94C5030C94961F0C94692082
:100030000C94B21A0C94C5030C94C5030C94C5031C
:100040000C94C5030C94C5030C94C5030C94C50310
:100050000C94C5030C94391B0C94C5030C94C50374
:100060000C94C5030C94C5030C94C5030C94C503F0
:100070000C94C5030C94C5030C94C5030C94C503E0
:100080000C94C5030C94C5030C94C5030C94C503D0
:100090000C94C5030C94C5030C94C5030C94C503C0
:1000A0000C94C5030C94C5030C94C5037E2F00016A
:1000B0000001000100010001000100010001000138
:1000C000002E0001000100010001002B4614000A6F
:1000D0000010000F001A001C000900180005003372
:1000E000002D0001002A0027280700160017001124
:1000F0004315000C000443084412000B0034006850
:10010000000100292101001D001B00060019000D3F
:10011000000E001300360037003800275239000166
:10012000000100E2000000E1000000284500002C72
:10013000000000E60001006500E40029001E001F29
:100140000020002100220023002400250026002793
:10015000002D002E0035002B0014000A0010000FA7
:10016000001A001C0009001800050033002F0030A1
:10017000002A00E300070016001700110015000C0C
:10018000000400080012000B0034006800017EE14A
:100190000001001D001B00060019000D000E0013D9
:1001A0000036003700380027523900E000E300E253
:1001B0000000002C000000284500002C000000E694
:1001C00000027E6500E40029001E001F00200021BF
:1001D000002200230024002500260027002D002EE9
:1001E0000031002B0014001A000800150017001C35
:1001F0000018000C00120013002F0030002A0039F4
:100200000004001600070009000A000B000D000E94
:10021000000F00330034004C002800E10031001DC5
:10022000001B000600190005001100100036003701
:100230000038002752E500E000E300E20000002C57
:10024000000000255200002C000000E600E70065D9
:1002500000E40001000100010001000100010001B3
:100260000001000100010001000100010001000186
:10027000001E021F02200221022202230224022564
:10028000023500350201000100010001001E001FBF
:100290000020002100220023002400250026002742
:1002A0000001000100010001000100010001000146
:1002B00000310031020100010001000100010001D4
:1002C0000001000100010001000000010000000128
:1002D0000000000100000001000100010001000118
:1002E0000001000100010001000100010001000106
:1002F00000010001000100010001000100010030C7
:1003000000300227022E000100010001000100015F
:10031000000100010001000100017E2F002F0226D4
:10032000022E020100010001000100010001000194
:100330000001000100010001003100310201000153
:1003400000010001000100010001000100010001A5
:100350000001000100000001000000010000000198
:100360000000000100010001000100007C3A003B98
:10037000003C003D003E003F004000410042004381
:10038000004400450001000100010001004B000194
:1003900000010001002A0052004C00010001000190
:1003A000000100010001004A004E004D0001000163
:1003B00000500051004F000100010001004C00E11D
:1003C0000001000100557C537C567C547C577C29ED
:1003D0000001000100010001000100010001000115
:1003E00000000029000000010000002800000001BA
:1003F00000010001000100010001000100010001F5
:1004000000010001000100010001000100010001E4
:100410000001000100DD00DE00DF0001000100013D
:1004200000D100CD00D20001000100010001000157
:1004300000010001000100010001000100CF00CE19
:1004400000D00001000100010001000100010001D5
:100450000001000100010001000100010001000194
:100460000001000100010001000100010000000185
:100470000000000100000001000000010001000177
:100480000001000100010001000100010001000164
:100490000001000100010001000100010001000154
:1004A00000027E037E047E010001000100010001C4
:1004B0000001000100010001000100010001000134
:1004C0000001000100010001000100010001000124
:1004D0000001000100010001000100010001000114
:1004E0000001000100010001000100010001000104
:1004F00000010001000100010000000100000001F6
:1005000000000001000000010001000100010000E6
:10051000000000000000002A2B280000000000005E
:100520000000000000000000000029000000002C76
:100530001E3420212224342627252E362D37382715
:100540001E1F202122232425263333362E37381F21
:100550000405060708090A0B0C0D0E0F10111213E3
:100560001415161718191A1B1C1D2F3130232D3581
:100570000405060708090A0B0C0D0E0F10111213C3
:100580001415161718191A1B1C1D2F3130354C0065
:10059000000000000000000000000000000000005B
:1005A000000000000000000000000000000000004B
:1005B0000000007E0F00D4FFFFFFC7000000781C82
:1005C0000343006F00640079007300200050006F47
:1005D000006C006100720069007300000026036176
:1005E000006900300033002000440065007300699A
:1005F0000067006E002000530074007500640069FD
:10060000006F0000000403090409023B000201001E
:10061000A0FA0904000001030101000921110100F1
:1006200001224000070581030800010904010001BF
:100630000300000009211101000122840007058246
:1006400003200001120100020000000803A10200C3
:1006500001000102000105010902A1018502090151
:10066000A100050919012908150025019508750142
:1006700081020501093009311581257F9502750830
:10068000810609381581257F950175088106050CBD
:100690000A38021581257F950175088106C0C005BD
:1006A000010906A1018506050719E029E7150025BE
:1006B000019508750181020507190029EF1500252C
:1006C0000195F07501810205081901290595057547
:1006D000019102950175039101C005010906A1016F
:1006E000050719E029E71500250195087501810224
:1006F0009501750881010507190029FF150026FFDE
:1007000000950675088100050819012905950575EC
:10071000019102950175039101C011241FBECFEF15
:10072000DAE0DEBFCDBF04B603FE18C080916A05D3
:1007300090916B05A0916C05B0916D058730904B41
:10074000A740B04B59F410926A0510926B051092B5
:100750006C0510926D05E0E0F8E3099511E0A0E06A
:10076000B1E0E6E6F6E402C005900D92A434B107CC
:10077000D9F725E0A4E4B1E001C01D92AA36B20782
:10078000E1F70E940A130C94AC220C9400009C0127
:10079000FB0123308EE7380771F148F421308EE7F2
:1007A000380799F022303E47C9F081E0089524309F
:1007B0003E47D9F782818115C1F382E00E945A0930
:1007C00080E00E946A0981E013C08281811569F38B
:1007D00060E08CEA90E00E94F915E7CF82818115F4
:1007E00021F380E00E945A0981E00E946A0982E0B8
:1007F0000E946A09DACF82818115B9F281E00E94F4
:100800005A0980E0F2CF9C0181E02832354409F09A
:1008100080E008958830B8F46530A8F44E3098F43C
:10082000E42FF0E09EE0699FE00DF11D112496E4B5
:10083000899FE00DF11D1124EE0FFF1FE155FF4FC1
:1008400085919591089580E090E008950E940A04B2
:10085000089581E008950E94C703089508950E94B5
:100860002E040895A5E0B0E0E8E3F4E00C942C2217
:1008700049835A8330914B0189819A81311119C082
:10088000611599F0211589F00E94200A182F682F10
:1008900089819A810E94FC0969817A81812F0E9455
:1008A00074102596E3E00C9448220E940E0A182F3B
:1008B000F3CF0E94200A69817A81F1CFFC01262FB3
:1008C000408151816281738184810E943204089544
:1008D00081E00895CF93DF93D82FC92F60E00E9465
:1008E0005E046D2F7C2F0E942F04DF91CF9108951D
:1008F0000E94A41108950E94A811089508950E94CD
:10090000C2080E947E042FEF84E39CE021508040C7
:100910009040E1F700C0000008950E947F040E940B
:100920005D1B08950E947F040E94811B08950F9310
:100930001F93CF93DF938C0161E00E945E04EC0172
:10094000B8010E94F7178115E1F1B801CE010E94AC
:100950002B048115B1F1B801CE010E941B1981153C
:1009600081F1B801CE010E94C214811551F1B80184
:10097000CE010E948A18811521F1F801828181152A
:1009800081F0CA35FCE7DF0739F178F4C130ECE7D4
:10099000DE07F9F0C330FCE7DF07C9F0C115DC471B
:1009A00071F0C8010E9429040DC0CB35ECE7DE07C9
:1009B000B1F0CC35DC47A9F70E94210EF2CF0E949E
:1009C0008D0480E0DF91CF911F910F9108950E94D7
:1009D000320E0E949204F5CF0E942A0EE2CF0E94AE
:1009E0002E0EDFCF0E948E1A0E941C0508950E94D1
:1009F00020050E94931A089508950E94FC0408950A
:100A000081E008950895CF93DF93D82F0E940005C9
:100A1000C82F811519F08D2F0E9402058C2FDF91B0
:100A2000CF9108950895CF93C82F0E94FD048C2F75
:100A30000E940305CF91089580E00E941305089558
:100A40000E9467190E9413050895CF930E946719A9
:100A5000C82F809146018C1779F0C09346010E94FF
:100A60001E1B609347017093480180934901909346
:100A70004A018C2F0E941305CF910895ABE0B0E09E
:100A8000E4E4F5E00C942922042F4F83152F5887B6
:100A900069877A878B87EA84FB8461110E946A0DDB
:100AA0001E8285E0FE013796DE01119601900D92BF
:100AB0008A95E1F7E114F10461F449815A816B816F
:100AC0007C818D819E810E94970C2B96E6E00C9490
:100AD000452210231F3F89F3CE0101960E9468042E
:100AE0008111EBCFF2CFFC01808191810E94520AEB
:100AF0000895611529F00E9484130E941C14089522
:100B00000E94C613FACFCF93C82F8115C9F082383F
:100B1000C9F40E94671981FD13C089E30E941F0D6B
:100B20000E948B0D2FEF87EE93E021508040904084
:100B3000E1F700C0000089E30E94270D0E948B0DA1
:100B4000CF9108958338A1F40E94671980FDF8CFF2
:100B500083E50E941F0D0E948B0D2FEF81EE94E024
:100B6000215080409040E1F700C0000083E5E4CFD1
:100B70008438A1F40E94671982FDE2CF87E40E94C5
:100B80001F0D0E948B0D2FEF81EE94E021508040CD
:100B90009040E1F700C0000087E4CECF8CEF8C0FCF
:100BA000813AB8F48C2F0E94D4168111C9CF6C2FD2
:100BB00080910001909101010E94B219811529F0E4
:100BC0008C2F0E94270D0E948B0D8C2F0E941F0DD1
:100BD000B5CF80E28C0F883048F4C77081E001C047
:100BE000880FCA95EAF70E944B0DA8CF83E38C0FBC
:100BF000833108F0A5CF61E08C2F0E947905A0CF4A
:100C0000811509F444C0823879F40E94671981FF84
:100C10003EC089E30E941F0D0E948B0D89E30E9454
:100C2000270D0E948B0D0895833859F40E9467198F
:100C300080FF2DC083E50E941F0D0E948B0D83E570
:100C4000EECF843859F40E94671982FF20C087E4F0
:100C50000E941F0D0E948B0D87E4E1CF9CEF980F3F
:100C6000913AE8F290E2980F983050F4877091E052
:100C700001C0990F8A95EAF7892F0E94510DD1CFB3
:100C800093E3980F933118F460E00E94790508957A
:100C90000F931F93CF93C82F8B010E9483050115DB
:100CA000110539F48C2F0E940006CF911F910F91EE
:100CB00008958FE99FE00197F1F700C0000001500F
:100CC0001109EDCF60E570E0893311F060E070E06C
:100CD0000E9448060895811521F00E944B0D0E9444
:100CE0008B0D0895811521F00E94510D0E948B0DEE
:100CF0000895A0E0B0E0EFE7F6E00C9427226C0145
:100D0000D62FC72FFC010281F580F2948FE0F822E4
:100D10000E94400DE82E8115B9F0E02E0115A1F0DA
:100D20008C2F807F803421F080E28D0F883090F10D
:100D30008091440582FF2EC082E00E94EF0D0E9448
:100D4000400D91E0E82EE9268C2F82958F70883037
:100D500009F4DDC0E0F58430F8F41C2F1F708230F8
:100D600008F446C0C07FC03211F01295107FD11533
:100D700009F46DC0D13009F4A7C0011509F4B1C060
:100D8000F11409F4A7C0F601858180FF44C08F707B
:100D90008583A0C0E12CD8CF853009F4B3C0E1141D
:100DA00089F00E943C0D80FD0DC0F60112820E9468
:100DB000360D0E945A09C6010E948B080E94360D0A
:100DC0000E946A09CDB7DEB7E8E00C94432289306F
:100DD00009F417C18A5F8F70823008F7D23F09F09B
:100DE00021C18C2F8F7101111AC10E945A09BEC0F6
:100DF000C03110F01295107F011599F0111559F0BE
:100E000080E28D0F883010F0D11107C0812F0E9431
:100E10004B0D0E948B0D8D2F28C0812F0E945C0DE1
:100E2000F8CF8D2F0E940006111509F4B8CF80E28B
:100E30008D0F883010F0D11104C0812F0E94510D08
:100E400003C0812F0E94620D0E948B0DA8CF80915C
:100E5000440582FD14C0011559F0111529F0812FA8
:100E60000E944B0D0E948B0D80E00E94830597CF5E
:100E700080E00E940006111509F491CFDECF011524
:100E800089F0F11006C00E946D0D812B0E946B0647
:100E900086CFF1E0FF12F7CF0E946D0D812B0E94EB
:100EA000740D7DCFF11006C00E94810D812F0E942C
:100EB000720675CF21E0F21609F471CF812F0E94DE
:100EC00072060E94810D6BCF011531F066E0F616B7
:100ED00008F065CF812FDACF75E0F71608F05FCF05
:100EE000E5CFF11419F3D93349F4FFEF27EE63E0AE
:100EF000F15020406040E1F700C000008D2F0E94BB
:100F000000064DCF602F8D2F0E94790548CF8C2F82
:100F10008370811139C0011129C04D2F429546952A
:100F20004770440F440F2D2F2F7030E0042E02C065
:100F3000220F331F0A94E2F780E090E0D4FF09C04B
:100F40008FE090E002C0880F991F4A95E2F78095E4
:100F50009095C695C695C370822B932BC23071F0C5
:100F6000C33079F0C13039F00E942A090E94671914
:100F70000E94130514CF0E942109F8CF0E94330963
:100F8000F5CF0E941E09F2CF011561F1C0FFEECF2F
:100F90008D2F829586958770880F880F4D2F4F7003
:100FA00050E0082E02C0440F551F0A94E2F7D4FF08
:100FB0001CC02FE030E0F90102C0EE0FFF1F8A9540
:100FC000E2F7CF0180959095C695C695C370842BA6
:100FD000952BC23081F0C33089F0C13049F00E94B6
:100FE0009509C4CF823010F2D3CF80E090E0ECCFEF
:100FF0000E948C09BBCF0E949E09B8CF0E94420973
:10100000B5CFCF70011539F08C2F0E945A098D2F62
:101010000E946B06ABCF8D2F0E9472068C2F0E9410
:101020006A09A4CF70F4D03FC9F0D13F91F0011507
:1010300009F445C0F11409F43FC08D2F0E948305C7
:1010400095CFD33FC9F0D43F91F78091440582FDFD
:101050001DC08C2F8F71011511F3C7CE011549F0FA
:10106000F5E0FF1608F082CF8C2F8F710E947C096B
:101070007DCF26E0F216F6CF011529F08C2F8F7167
:101080000E944E0973CF0E94490970CF011549F0A3
:10109000CF718C2F0E945A0963E08C2F0E94D00DD3
:1010A00065CF81E00E94EF0D62E0F61608F45ECF96
:1010B00082E00E94EF0D5ACF8C2F8F7196CEF114E3
:1010C00079F0D93349F47FEF87EE93E07150804097
:1010D0009040E1F700C000008D2F0E94000646CF2F
:1010E0008C2F8F719CCF0F931F93CF93DF93EC01C5
:1010F000688179818A810E945F0A8C010E94A70918
:101100000E941D09B801CE010E947906DF91CF919E
:101110001F910F910895CF93DF93EC018B819C81F8
:10112000892BC1F08981988189238F3F99F0CE0165
:101130000E949704811111C00E94400D811551F049
:101140008A81811539F08091440582FF03C082E0D5
:101150000E94EF0DDF91CF910895CE010E94730898
:10116000CE010E946A04F6CF0E946A0D0E948B0D88
:101170000E9439140E941C1408950E942F0D0E9491
:10118000B40808950E94590D0E94BD080895282FA3
:1011900092959F70963099F060F4925F9F709230B4
:1011A00030F4203FB1F038F481E0283E38F080E0A0
:1011B00008959A5FF3CF81E0243FC9F7089591E045
:1011C000813F09F090E081E0283E08F080E0892B23
:1011D000089581E00895FC0183819481892B61F059
:1011E0008181908189238F3F39F0808191810E9494
:1011F000520A0E94C708089580E00895A5E0B0E073
:10120000E4E0F9E00C942D222596E2E00C944922CA
:10121000A6E0B0E0EEE0F9E00C942D222696E2E0A4
:101220000C94492208950E94120908950E941309FE
:101230009093730180937201089508950E94160996
:1012400008952091720130917301822B932B0E949B
:10125000160908952091720130917301822393231E
:101260000E9416090895209172013091730182271E
:1012700093270E94160908950E94120908950E945A
:101280003C0908950E943F09909371018093700179
:10129000089580E090E00E944209089521E030E046
:1012A000A90102C0440F551F8A95E2F7CA010E94A6
:1012B0004209089521E030E002C0220F331F8A95D1
:1012C000E2F78091700190917101822B932B0E9423
:1012D0004209089521E030E002C0220F331F8A95B1
:1012E000E2F72095309580917001909171018223F1
:1012F00093230E944209089521E030E002C0220FAA
:10130000331F8A95E2F780917001909171018227D5
:1013100093270E9442090895209170013091710134
:10132000822B932B0E9442090895209170013091E5
:101330007101822393230E94420908952091700134
:1013400030917101822793270E94420908950895E0
:101350009B01677091E001C0990F6A95EAF763E01D
:10136000369527956A95E1F7220F331F220F331F19
:10137000FA01E20FF31F40E050E0682F70E0819126
:10138000DF019B01042E02C0369527950A94E2F7EF
:10139000217021952827292328272E934F5F5F4FFF
:1013A0004430510561F708959C01982F977083E0B0
:1013B000369527958A95E1F7220F331F220F331FA9
:1013C000FB01E20FF31F40E050E080E0219130E0AC
:1013D000092E02C0369527950A94E2F7217033272B
:1013E000042E01C0220F0A94EAF7822B4F5F5F4F51
:1013F0004430510559F70895282F862F953068F409
:101400002E3058F4622F70E02EE0929F600D711D17
:1014100011244CE451E00E94A8090895292F953029
:1014200068F48E3058F490E06CE471E03EE0239F65
:10143000800D911D11240E94D409089580E0089523
:10144000A0E0B0E0E6E2FAE00C9426228C01E09005
:101450007001F09071018091720190917301E82AFE
:10146000F92ACFE0D0E0CC24C394D12CC6010C2EB5
:1014700002C0880F991F0A94E2F78E219F21892BC1
:1014800049F4219798F7B12C8B2DCDB7DEB7E9E061
:101490000C944222BC2EB8018C2F0E948010019720
:1014A00081F3F2CFCF93DF93D82FC92F0E94200A68
:1014B0006D2F7C2F0E948010DF91CF9108951F9394
:1014C000CF93DF93162FD72F90914B01911541F0B9
:1014D000862F972F0E94520ADF91CF911F91089576
:1014E000811581F0862F972F0E94200AC82F682F20
:1014F000812F9D2F0E94FC09612F7D2F8C2F0E9430
:101500008010EACF862F972F0E940E0AC82FF4CFA3
:101510000F931F93CF93E0917401C6E08091750102
:101520008E1304C0CF911F910F9108950E2F10E0DC
:10153000CE9FF0011124EA58FE4F40815181628113
:101540007381848195810E940809F8013196E770C2
:10155000E5CF4091A6015091A7016091A80170913B
:10156000A9018091AA019091AB010E9408090895F8
:101570000F931F93CF938091AB01803108F04AC045
:101580008091A801811509F445C0E0917401609132
:1015900075015091A6014091A7012091A9013091B8
:1015A000AA01742F7523C6E06E17A1F10E2F10E06B
:1015B0002115310599F17F3F89F1CE9FF00111246A
:1015C000DF01AA58BE4F11968C911197841326C043
:1015D0008C91851323C012968C91129781111EC095
:1015E00013968D919C91821B930B86399105B0F4D3
:1015F0008091AB018F7080618093AB01E558FE4F05
:1016000080818F708061808386EA91E00E948B08E0
:101610000E94880ACF911F910F910895F801319689
:10162000E770C2CFABE0B0E0E8E1FBE00C9423222E
:101630008C0185E0F801DE01179601900D928A95E4
:10164000E1F7D801AC9011969C90119712968C906E
:1016500012971396ED90FC9060E086EA91E00E946C
:101660005E0426EAC22E21E0D22E6091A90170917B
:10167000AA016115710509F441C13091A60140919B
:10168000A701242F23232F3F09F438C1B090A801CC
:10169000F701E61BF70BB11409F4F2C02091AB017E
:1016A000E639F10508F0C9C0D80111965C9111978F
:1016B000203108F083C0D82C541315C04C9143132B
:1016C00012C081102FC12F7020612093AB010E94A6
:1016D000A90A86EA91E00E948B088091AB01F8018B
:1016E0008583D12C66C0E114F10409F12A2D29214A
:1016F0002F3FE9F081101DC0E091740180917501C8
:1017000096E0E8132FC08F8198850E94520A292FF6
:1017100022952F709032D0F59F70911519F0811598
:1017200009F447C0805E883008F443C033C0811498
:10173000C1F22091AB0121602093AB0166EA71E018
:101740000E940304811569F286EA91E00E948B08E9
:1017500086E0E6EAF1E0DF011D928A95E9F70E9452
:10176000A90ABFCF2E2F30E09E9FF0011124EA5826
:10177000FE4F4181491106C04081A41203C042813D
:101780004111AFCFF9013196E770BBCF225F2F70C7
:10179000223028F0C8010E948B08DB2C0AC09F7001
:1017A000911509F4BFCFD80115969C91903108F09E
:1017B000B9CF8D2D2B96ECE00C943F22541313C01F
:1017C000F801808183130FC081100DC02583C801EB
:1017D0000E948B0886E0F801A6EAB1E001900D9224
:1017E0008A95E1F725C0C8010E94EB08811509F42C
:1017F00079C0811409F476C08091AB01803270F019
:101800002091A6013091A7013A8329831B82FD8292
:10181000EC828E83CE0101960E948B0886E0F8014F
:10182000A6EAB1E001900D928A95E1F70E94B80A0C
:101830000E94A90ADD24D394BCCF203170F44F81DB
:10184000588569857A858B850E94FE0886EA91E035
:101850000E948B0886E0D6017FCFF8018181841336
:10186000C2CF80818313BFCF8110BDCF2583C80134
:101870000E948B0886E0D6011D928A95E9F7DACF9F
:10188000E639F10598F5811469F1F8018181841335
:101890001FC0808183131CC08091AB0180FD0FC0ED
:1018A000803168F08583807F803F09F490CF858107
:1018B000982F907F905F8F70892B858388CF86E0EB
:1018C000F801A6EAB1E001900D928A95E1F7B2CF56
:1018D000C8010E94EB088111A1CF8091AB0181600A
:1018E0008093AB01C8010E948B08A4CF4F8158851B
:1018F00069857A858B850E94FE08ACCF811491F3AF
:10190000C8010E94EB08811569F386E0F801A6EA98
:10191000B1E001900D928A95E1F786EA91E00E948C
:10192000730584CFE114F10409F0E0CE02CFACE0FE
:10193000B0E0EDE9FCE00C942C224F8358876987D6
:101940007A878B879C87CE0107960E94120B2A8587
:101950003B8558854F818115B9F0232B51F0852F98
:1019600084238F3F31F069857A858B859C850E9421
:10197000080916E0809174019091750189133DC0AA
:101980002C96E3E00C94482286E0FE013796DE01B7
:10199000119601900D928A95E1F7232B51F3542370
:1019A0005F3F39F3A09175018A2F90E0019687700F
:1019B0009927209174012817190689F096E09A9FBB
:1019C000D0011124AA58BE4FFE01319601900D920C
:1019D0009A95E1F7809375010E94880ACACF0E9408
:1019E000C208109275011092740186E0E6EAF1E0F7
:1019F000DF011D928A95E9F7BCCF189FC001112421
:101A00008A589E4F0E94120B811509F4B9CFE091BC
:101A100074011E9FF0011124EA58FE4F408151814C
:101A200062817381848195810E940809809174018B
:101A300090E0019687709927809374019BCF682F5F
:101A400080910001909101010E94381A0895682F39
:101A500080910001909101010E94461A08958091A1
:101A60000001909101010E94541A08958091CC01C7
:101A700085958595859508958091CC018770089509
:101A80009091CC01977081E0911101C080E00895A0
:101A90008091EF0108959091EF01982B9093EF01C1
:101AA0000895982F90958091EF0189238093EF01FD
:101AB00008951092EF0108959091EE01982B909364
:101AC000EE010895982F90958091EE0189238093DF
:101AD000EE0108951092EE0108958091CD010895D0
:101AE00008950E94700D08959091440592FF08C0DA
:101AF0009091CD01981721F08093CD010E94710D36
:101B000008958091CD01811529F01092CD0180E0DA
:101B10000E94710D0895CF93DF93E0910001F09141
:101B200001018091EF018083E0910001F0910101BA
:101B300080819091EE01892B80839091CD01911548
:101B400081F0E0910001F09101018081892B808377
:101B500080910001909101010E949E1981110E94C3
:101B6000810DC0910001D091010140E250E06CEA8A
:101B700071E0CE010E945422892B59F080E2FE01CF
:101B8000ACEAB1E001900D928A95E1F7CE010E9496
:101B90007419DF91CF91089508950E94CC0D089596
:101BA000962F2091440522FF11C0682F660F660F03
:101BB000660F692B6093CC010E945A098091CC0179
:101BC0008595859585950E94CD0D08950E945A09A9
:101BD00008951092CC0180E00E94CD0D089590915F
:101BE000CC01809589238093CC01282F2770211167
:101BF00012C0282F082E000C330B9217130659F031
:101C00009091440592FF07C08595859585950E9422
:101C10006A090E94E90D08959091440592FB2227DC
:101C200020F9281769F080FB92F990934405809180
:101C30004305909144050E94530E82E00E94EF0DEF
:101C4000089580914405002482FF0394802D0E9412
:101C50000C0E089581E00E940C0E089580E00E9411
:101C60000C0E08956FEF7FEF80E090E00E949622C7
:101C7000089580E090E00E9472229C0181E0273E5E
:101C80003E4F09F080E0089582E090E00E946A22D1
:101C9000089583E090E00E946A22089584E090E035
:101CA0000E9472220895BC0184E090E00E94962276
:101CB0000895AB01BC018FE090E00E948A22089554
:101CC000AB01BC0183E190E00E948A22089560E0AC
:101CD00070E0CB010E94600E089560E070E0CB01DF
:101CE0000E94590E0E94670E089567EE7EEF80E015
:101CF00090E00E94962260E082E090E00E947822CC
:101D000060E083E090E00E947822109273011092CC
:101D1000720160E074E184E090E00E94962260E04D
:101D200086E090E00E9478226FEF87E090E00E94CA
:101D3000782240E050E0BA0188E090E00E948A22D8
:101D400060E08DE090E00E94782240E050E0BA012F
:101D500088E190E00E948A2260E087E190E00E94A2
:101D6000782240E050E0BA018CE190E00E948A22A3
:101D700060E070E080E290E00E94962240E050E057
:101D8000BA0188E190E00E948A220E946D0E0895B7
:101D90000E94750E0895682F8EE090E00E947822D0
:101DA00008950E941E1B60930002709301028093AD
:101DB0000202909303026093FC017093FD018093F3
:101DC000FE019093FF010895089508950E94E50E85
:101DD000089508950E94E90E089589E691E10E9410
:101DE0005D190E94E40E0E94E60E089581E00895B8
:101DF0000E94F60E0895089508950E94FB0E0E9419
:101E0000FC0E08950E9485110E94120508950E94FB
:101E1000091B0E9467120E94020F0E94EA0E089599
:101E2000A5E0B0E0E6E1FFE00C9420220E947D12E4
:101E300022EFE22E21E0F22E3701512CF3018190A6
:101E400091903F01852D0E94AB115C015394F5E008
:101E50005F1609F44AC08816990681F3809104023E
:101E600081FD0E94B4110E94F80E782ED12C8D2D88
:101E70000E94AB118C01F701A190B1907F018A15EE
:101E80009B0561F1A826B126C12C88248394912C4E
:101E9000C50188219921892BC1F07114B1F0C98243
:101EA000DA8221E0C80188219921892B09F420E0F8
:101EB0002B830E94121B8160782F9D838C83498124
:101EC0005A816B81892F0E943E05C394880C991C0E
:101ED000FEE0CF12DDCFF70112930293D39485E099
:101EE000D812C5CF0E94D10E22C08816990609F0DB
:101EF000B5CF0E94121B6C018091F0019091F1010D
:101F0000C816D906A1F08FEF89838A831B820E94AD
:101F1000121B8160782F9D838C8349815A816B814C
:101F2000892F0E943E05D092F101C092F0010E94DB
:101F300054140E9425052596EFE00C943C22CF9383
:101F4000DF930E948510EC01811522E59207A8F528
:101F5000811540E5940708F0AEC0883E9105D8F49D
:101F6000803E910560F4853A910568F4049738F451
:101F700081E0219709F080E0C82F50E0D52FCE01F5
:101F8000DF91CF9108958D5C9109D0654397B8F3A7
:101F9000C0E0D0E0F4CFC11580E4D80758F4C115F3
:101FA00090E2D90708F094C0CE019A9581159F411F
:101FB00030F3EECFDF70D06AE2CF803842E594078D
:101FC000C8F5803652E5950708F056C0C03482E562
:101FD000D807D0F4C03292E5D90708F046C08C2F5C
:101FE0008695869520E2829FC0011124C37021E06E
:101FF00030E0A90102C0440F551FCA95E2F7EA017B
:10200000C82BD92BDD68BBCF8C2F86958695877022
:1020100050E2859FC0011124C37021E030E0A90186
:1020200002C0440F551FCA95E2F7EA01C82BD92B0D
:10203000DC68A5CF803C52E5950758F48F71C03A13
:10204000D24578F590E0982F8827EC01C46FD06ACC
:1020500096CF805C9245809708F09ACFDC2FCC27F2
:10206000CC27DF71C06FD06A8ACFCF71D0E0DC2F70
:10207000CC27C16FD06A83CF86958695877020E282
:10208000829FC0011124C37021E030E0A90102C089
:10209000440F551FCA95E2F7EA01C82BD92BDA681D
:1020A0006ECF0E942611C82FD0E0DC2FCC27CC2782
:1020B000DF71D06264CF8F710E94261133E0CC0FA4
:1020C000DD1F3A95E1F7CC27DF70C82BD06957CFD9
:1020D0008D2F8F710E94261190E0982F88278827D6
:1020E0009F718C2BEC01E5CF462F672F753028F4BC
:1020F0004E3018F40E942604089580E090E0089580
:102100000E9474100E949F0F08959C01803E9105CB
:1021100009F448C0D8F48133910509F47DC048F42E
:102120008932910509F46DC08A9709F47CC0C90110
:1021300008958933910551F18238910539F1C59798
:10214000B1F78091430585FFF2CF29C0843E910508
:1021500009F447C048F4823E910599F1833E910508
:10216000A9F121EE30E0E3CF863E910509F444C0A9
:10217000873E9105E1F68091430583FD61C0909112
:10218000440591FF2BC024EE30E0D1CF8091430570
:102190008370811152C08091440583FFC8CF29E22A
:1021A00030E0C5CF8091430580FD33C09091440558
:1021B00090FFBDCF23EE30E084FFB9CF20E030E0C8
:1021C000B6CF8091430582FDF5CFB1CF8091430515
:1021D00082FD30C09091440590FD2FC084FFA7CFB1
:1021E000EDCF8091440581FFA2CF8091430527EE7A
:1021F00030E084FDE3CF9BCF8091430583FDF7CF93
:1022000096CF8091430585FD1EC08091440583FFD4
:102210008ECF29E330E08BCF8091430586FF87CFB7
:102220002AE230E084CF8091430586FF80CF21E30E
:1022300030E07DCF22EE30E07ACF20EE30E077CF75
:1022400026EE30E074CF25E330E071CF9091430566
:1022500092FF06C0282F28712830F9F4877F846008
:1022600093FF06C0282F28712831F1F4877E8461FE
:102270002091440520FF06C0382F38713830D9F43A
:10228000877F816021FF06C0282F28712831D1F473
:10229000877E816194FD877E0895282F24712430E4
:1022A000F9F68B7F8860DCCF282F2471243101F769
:1022B0008B7E8861DDCF382F3171313019F78E7FF9
:1022C0008860E0CF282F2171213121F78E7E88612F
:1022D000E1CF80E008950E94320E08950E947D12A1
:1022E0008FE39CE90197F1F700C000000E947D1286
:1022F00080E00E94AB1180FF04C00E946B110E941D
:102300005D1B08950E946E1108950E94390E81117F
:1023100002C00E94C80E0E94440E809304020E94D4
:102320004E0E90934405809343050E9482110E94B3
:10233000490E90E00E941E098091700190917101F8
:102340000E943F09089508950E94A31108950895D9
:102350000E94A7110895E82FF0E0EE0FFF1FE15B48
:10236000FA4F808191810895089580EA8A95F1F766
:10237000089500C008950E94B5110895F894E82FBB
:10238000E295EF70F0E041A18F7021E030E0B901FB
:1023900002C0660F771F8A95E2F7CB01962F9095C2
:1023A000942391A392A1892B82A378940895CF932B
:1023B000DF93CEE3D1E089918F3F11F00E94BE11EF
:1023C00081E0C334D807B9F7C0E3D1E089918F3FEA
:1023D00011F00E94BE1181E0CE33D807B9F7DF912A
:1023E000CF9108958F929F92BF92CF92DF92EF92FA
:1023F000FF920F931F93CF93DF938C01B62EE62E9F
:10240000F12CC701825C9E4F6C01FC0180818F3FE3
:1024100009F451C0F894E82FE295EF70F0E091A133
:102420008F7021E030E001C0220F8A95EAF7892FF2
:10243000822B81A382A12095282322A378940E9435
:10244000B911E0E3F1E021E030E0812C912C4191E1
:102450004F3F81F0A42FA295AF70A05EB0E08C91A9
:1024600090E04F7002C0959587954A95E2F7E90193
:1024700080FF04C080E0C82F90E0D92F8C2A9D2ACD
:10248000220F331F81E0EE33F80709F7F601808150
:102490008F3F11F00E94BE1161E08114910409F494
:1024A00060E08B2D0E94BB11EE0CFF1C0E0D1F1D5A
:1024B000F80191828082DF91CF911F910F91FF905F
:1024C000EF90DF90CF90BF909F908F9008950E94E3
:1024D000D7118AE0EFE4F5E0DF01982F1D929A957D
:1024E000E9F7E5E4F5E0DF011D928A95E9F785E07B
:1024F0000E94BA120E9478040895AAE0B0E0E3E8CE
:10250000F2E10C942A22FE0131968AE0DF011D924D
:102510008A95E9F710E0FE2E0F2F612F8F2D902F57
:102520000E94F2111F5F1530C1F74AE050E06F2D95
:10253000702F85E495E00E94542221E0892B81F4DC
:1025400020E045E06FE475E085E495E00E94BB1271
:10255000182F0E947B04812F2A96E5E00C944622D6
:102560008AE0EF2DF02FA5E4B5E001900D928A9559
:10257000E1F7E7CF0895A0E0B0E0E1ECF2E10C94E0
:102580002822D82EE92EF62E072FC42F211549F028
:1025900081E0809307020E94121B909306028093B1
:1025A000050210910702111107C010E0812FCDB76D
:1025B000DEB7E7E00C944422809105029091060278
:1025C0000E942A1B059788F3D0E0CC0FDD1FAE01D7
:1025D0006D2D7E2D8F2D902F0E945422892B51F02E
:1025E000AE016D2D7E2D8F2D902F0E9461221092B5
:1025F0000702DCCF10E0FBCF0E94F21C0E94070F05
:102600000E94FF1C08950E94041D0E94100F0E944A
:102610001E1D08950E94AB1A0E94D81C0E94ED0E48
:102620000E94FC120E9403130E94FD0EFBCF20911A
:10263000220130E0220F331FF901E65EFE4F908148
:10264000265F3E4FF901808130910E0213161CF473
:10265000392F90930E0237FF04C0392F31953093F4
:102660000E0220910F0212161CF4292F90930F02D4
:1026700027FF03C0919590930F022091110212162B
:102680001CF4282F8093110227FF04C0282F2195C6
:10269000209311029091100219161CF4982F809328
:1026A000100297FF03C08195809310023115B1F09D
:1026B00040910F02411591F055EB3503C0011124F3
:1026C000892F911101C081E080930E0235EB430305
:1026D000A00111245115A1F050930F02211579F09A
:1026E00040911002411559F035EB2303C00111242C
:1026F000909311024303A0011124509310020895F6
:1027000081E080930F02EACF60912201462F50E0D2
:10271000440F551FFA01E65EFE4F2081465F5E4F73
:10272000FA019081E3E3E80FE33140F4F0E0E25591
:10273000FD4D0C941722219520930F0280912201C8
:1027400068130E9417130895219520930E02F6CF67
:10275000919590931002F2CF919590931102EECF44
:10276000815D990B21E030E001C0220F8A95EAF7E4
:1027700080910D02822B80930D02E0CF81E0809347
:102780002201DCCF82E0FBCF83E0F9CF8D3C39F42E
:1027900080910F0287FF29C010920F0208958E3C8E
:1027A00029F480910F021816BCF308958F3C39F478
:1027B00080910E0287FF19C010920E020895803D8D
:1027C00029F480910E021816BCF30895893D39F45E
:1027D0008091100218164CF41092100208958A3D50
:1027E00029F48091100287FDF7CF08958B3D39F4CD
:1027F0008091110287FFF9CF1092110208958C3D4C
:1028000029F4809111021816BCF308959FE2980FE5
:10281000983058F7815D990B21E030E0A90102C0A2
:10282000440F551F8A95E2F7CA01809590910D02D9
:10283000892380930D0208950E94121B20910E029D
:1028400030910F02232B211521F080930A029093DF
:102850000B022091100230911102232B211521F03F
:1028600080930802909309028CE092E00E948F19F5
:10287000089586E0ECE0F2E0DF011D928A95E9F729
:102880000895FC01828181110DC0838181110AC0EC
:102890008481811107C081E09581911101C080E0A0
:1028A0008170089581E0FCCFA6E0B0E0EAE5F4E1B4
:1028B0000C942B2286E0ECE0F2E09E012F5F3F4F6C
:1028C000D90101900D928A95E1F710920E021092B3
:1028D0000F0210921002109211028B819C81892BA1
:1028E00089018115C1F080910A0290910B020E942A
:1028F0002A1BE0912201F0E0EE0FFF1FEE5EFE4F7B
:10290000208131812817390730F48B8180930E02A2
:102910008C8180930F028E819D81892B8115C1F05E
:1029200080910802909109020E942A1BE0912201E5
:10293000F0E0EE0FFF1FEE5FFE4F20813181281780
:10294000390730F48D81809310028E8180931102BB
:10295000B8018CE092E00E94661A811105C08CE0FB
:1029600092E00E94411481110E941C1486E0F8013B
:10297000ACE0B2E001900D928A95E1F72696E4E092
:102980000C944722CF93DF93EC01FB0182818115E8
:1029900009F4CFC09E0130572332310508F0AFC093
:1029A0000E944E0E9093440580934305FE01E15032
:1029B000F047E232F10520F4EF53FD4D0C9417225D
:1029C0008091430581608093430590C080914405C8
:1029D0008860809344058AC0809143058260F3CF6C
:1029E000809143058460EFCF809143058860EBCFF1
:1029F000809144058160EDCF809144058260E9CFEC
:102A0000809143058061DFCF809143058062DBCFF9
:102A1000809143058064D7CF0E94C208809143050E
:102A20008068D1CF809143058C60CDCF80914405E3
:102A30008360CFCF809143058E7FC5CF80914405C1
:102A4000877FC7CF809143058D7FBDCF80914305A0
:102A50008B7FB9CF80914305877FB5CF80914405A7
:102A60008E7FB7CF809144058D7FB3CF8091430592
:102A70008F7EA9CF809143058F7DA5CF809143059F
:102A80008F7BA1CF0E94C208809143058F779BCF97
:102A900080914305837F97CF809144058C7F99CFA8
:102AA00080914305992782FF939590FB82F990FBD3
:102AB00083F989CF80914405982F909590FB80F9F8
:102AC00090FB81F986CF90914305892F8F7B96FFEC
:102AD000806479CF0E94C20890914305892F97FBAB
:102AE00087F9805870CF81E00E94CB0E809143051A
:102AF000909144050E94530E0E94C20880E0DF912D
:102B0000CF91089580E0F0CF90914305892F8F7E7B
:102B100094FF806158CF90914305892F8E7F90FF5D
:102B2000816051CF90914405892F877F93FF886002
:102B300050CF81E0E4CFA0E0B0E0E1EAF5E10C9411
:102B40002822E82FF0E0E15FFA4FD490282F269555
:102B50002695269530E0F901E155FA4F04918770EA
:102B600010E0082E02C0159507950A94E2F701704F
:102B70001127F901E156FA4FE490F12C082E02C01A
:102B8000F594E7940A94E2F7E0FAEE24FF24E0F8E3
:102B9000F901E157FA4FC491D0E002C0D595C7952D
:102BA0008A95E2F7C170DD270115110519F081EE54
:102BB0000E948305E114F10419F086EE0E9483055A
:102BC0008D2D0E946206E114F10419F086EE0E9438
:102BD00000060115110519F081EE0E940006CD2BAB
:102BE00019F08CE20E946206CDB7DEB7E7E00C94E4
:102BF0004422FF920F931F93CF93DF938C01F62E05
:102C0000F8018491811509F459C0813009F052C04E
:102C1000E8012196FE018491813099F42196FE010C
:102C200084910E9462068E010F5F1F4F8F2D8115C8
:102C300039F3EFE9FFE03197F1F700C00000815070
:102C4000F6CF823039F4E8012296FE0184910E9489
:102C50008305E9CF833039F4E8012296FE0184919F
:102C60000E940006E0CF8430F1F6E8012296FE01D2
:102C7000849120E030E04AE0FE0131968053990BC8
:102C80008A30910560F02115310569F28FE99FE0E6
:102C90000197F1F700C0000021503109F4CF429FA5
:102CA000B001439F700D11249C01260F371F8491A2
:102CB000EF01E2CF0E949B15E801B5CFCDB7DEB79B
:102CC000E5E00C944622EBEFE80FEF3308F066C026
:102CD000F0E0ED51FD4D0C9417220E94C80E81E0EA
:102CE000089580910402807F8093040281E08093A4
:102CF0001502F5CF0E948D04F2CF90910402892F26
:102D00008E7F90FF81608093040280FDE8CF817FF9
:102D100080930402E4CF90910402892F8D7F91FF6C
:102D200082608093040281FFDACF80910402816087
:102D3000EFCF90910402892F8B7F92FF8460809364
:102D4000040282FDF2CFCBCF90910402892F877FBE
:102D500093FF88608093040283FDE7CFC0CF0E9479
:102D6000C20890914305892F97FB87F9805880937B
:102D70004305B5CF81E090E00E941E090E94C20881
:102D8000AECF895321E030E0A90102C0440F551FA6
:102D90008A95E2F7CA01F0CF8D51F4CF80E0089513
:102DA00080E0089580E00895CF93C82F80911502A8
:102DB000813099F0823099F1811170C00E94480DE4
:102DC000823209F06DC08C2F0E94D016811103C091
:102DD0008C2F0E946316CF9108950E94480D823275
:102DE00091F38C2F0E94D216811519F081E0817029
:102DF000F2CFC43169F030F4CB30C1F3C03159F0B7
:102E000080E0F5CFC93221F081E0C833C9F7EFCFB8
:102E100010921502F5CF82E080931502E7CFCF34F0
:102E200099F150F4C83230F4CE3158F5C431F1F094
:102E300081E0D1CFC932FBCFC13541F1C23541F17B
:102E400086EFC035A9F7E0911202F0911302309796
:102E500079F32081082E000C990B820F911D8115AA
:102E600021E09207BCF08FEF8083E2CF80911402C3
:102E70008115F1F2109214021092130210921202B4
:102E8000D7CF10921402D4CF8AE0DDCF8FEFDBCF03
:102E900081E0D9CF97FFE8CF1082CACF10921502F8
:102EA00080E099CF089508950895089581E00895E8
:102EB0000F931F93CF93DF93EC018B010E94521766
:102EC0000E94C2080E94490908831983DF91CF91AB
:102ED0001F910F910895AF92BF92CF92DF92EF9220
:102EE000FF921F93CF93DF93EC017B01142FC090CF
:102EF0007001D09071010E94C2080E94490986E0C9
:102F0000180250011124CE15DF0591F40E94C20869
:102F1000C6010E944209812F0E945317DF91CF9171
:102F20001F91FF90EF90DF90CF90BF90AF900895EA
:102F3000CE010E948B08CA0DDB1DE5CFA0E0B0E0FA
:102F4000E4EAF7E10C9427226C01EB017A01822F6D
:102F5000F801A881B9819281911103C0CA16DB06DC
:102F6000A9F096E0890290011124AD01421B530B98
:102F7000E416F50681F086E001900D928A95E1F75E
:102F800088819981820F931F99838883CDB7DEB79B
:102F9000E8E00C944322BF010E945417F7CFCF9270
:102FA000DF92EF92FF920F931F93CF936C018B01EF
:102FB000C42F7901842F0E9455178AEFC802A001FF
:102FC00011240C151D0531F0F801E40FF51F828165
:102FD00081110BC0F70111830083CF911F910F91D5
:102FE000FF90EF90DF90CF9008958F01EACF0F937D
:102FF0001F939C018B018091180581113CC0FB013E
:103000008281811521F081E01F910F91089526356D
:10301000FCE73F0731F178F423358CE73807B1F04E
:1030200024353C4781F760E175E086E195E00E9438
:10303000581782E012C027353C4729F760912301D9
:10304000709124014FEF80E195E012C066E172E0DB
:1030500086E195E00E94581781E08093180580E092
:10306000D3CF609125017091260141E086E192E085
:103070000E946B17F4CFA90143555C4743305105BB
:1030800030F591E025353C4709F490E0F8012281C4
:10309000291729F3813029F0823079F01092180530
:1030A000DECF609116057091170525E231E041E011
:1030B00086E192E00E94CF17F1CF609116057091E2
:1030C000170523E231E04FEF80E195E0F3CFC9012E
:1030D0000E945617811509F496CF8091180581300A
:1030E00069F0823009F08FCF40912501509126017F
:1030F0002FEF66E175E080E195E009C04091230182
:103100005091240121E066E175E086E192E00E94A1
:103110009E1779CFCF93DF93EB0186319C4719F54A
:103120000E94480D9A819115A1F08A7A91E081114F
:1031300001C090E090931905811549F085E30E9444
:103140001F0D0E948B0D80E0DF91CF91089589E2E1
:10315000F6CF80911905811521F085E30E94270D96
:10316000F0CF89E2FBCF81E0EFCF0F931F93CF9396
:10317000DF93C42FD22FFC0182818115C9F04093C7
:103180001C050E94121B90931B0580931A0580E278
:103190008C0F883040F4C77081E001C0880FCA9559
:1031A000EAF70E946B06DF91CF911F910F9108956E
:1031B00010911C05141333C080911A0590911B05C2
:1031C0000E942A1B8639910550F5C0E2CD0F1D17CC
:1031D000C1F080E2810F883040F4177081E001C0B7
:1031E000880F1A95EAF70E947206C83050F491E0F1
:1031F0008D2F877001C0990F8A95EAF7892F0E9459
:103200006B06802F0E946206C83068F6D77081E096
:1032100001C0880FDA95EAF70E947206C4CF80E2F7
:103220008C0F883008F0BFCFC77081E001C0880FD5
:10323000CA95EAF7F1CF0F93DB01FC01E851FC4797
:10324000E730F10598F5EE5DFC4D0C94172206E28F
:1032500021EE41EE6AE17CE7CD010E94B51880E0E5
:103260000F91089507E225EE45EE6BE17CE7F4CF80
:1032700006E221EE40EE68E17CE7EECF07E225EEC4
:1032800044EE69E17CE7E8CF06E221EE42EE6CE134
:103290007CE7E2CF07E225EE46EE6DE17CE7DCCF8E
:1032A00008E221E045EE6EE17CE7D6CF12968C91E4
:1032B000811110921C0581E0D3CF9093450180933A
:1032C0004401089590931E0580931D050895E09193
:1032D0001D05F0911E05309729F00190F081E02D39
:1032E0000995089580E00895DC01E0911D05F091B5
:1032F0001E05309799F080912F01811551F0809132
:10330000430587FF06C08C9111968C93119786E038
:103310008C930280F381E02DCD0109950895DC01A5
:10332000E0911D05F0911E05309739F082E08C93F5
:103330000480F581E02DCD0109950895FC013296B8
:1033400080912F01811521F0809143059EE187FF37
:1033500096E080E0915008F4089521912115D1F371
:103360008F5FF8CF9C01611559F180912F01811574
:1033700021F08091430587FD0BC0F9013296285F4B
:103380003F4F81918617F1F0E217F307D1F718C08C
:10339000462F469546954695603F90F4677081E0CC
:1033A00090E002C0880F991F6A95E2F7240F311D43
:1033B000F901228130E02823392381E0232B19F4FD
:1033C00080E0089581E008959C01FC0132968FEF22
:1033D00090E04191461751F08F3F19F4411101C01F
:1033E000892F9F5F9630A9F78F3F09F40895280F22
:1033F000311D87FD3A95F901628308959C01FC0116
:103400003296285F3F4F8191861302C0DF011E92E2
:10341000E217F307C1F70895FC01862F869586957C
:103420008695603F60F4E80FF11D677021E030E0A1
:1034300001C0220F6A95EAF78281822B8283089568
:10344000FC01862F869586958695603F80F4E80F6F
:10345000F11D677081E090E09C0102C0220F331FD4
:103460006A95E2F7B90160958281682362830895C5
:1034700020912F01211539F02091430527FF03C02A
:103480000E940C1A08950E94E419089520912F01BA
:10349000211539F02091430527FF03C00E94201A0F
:1034A00008950E94FE19089520912F01FC01329683
:1034B000211551F08091430587FF06C08EE1DF01A1
:1034C0001D928A95E9F7089586E0F9CF46E050E02D
:1034D0000E9454229C0181E0232B09F480E008958E
:1034E00008950E94701A08958F5F80931F050E94AF
:1034F000711A089583E080931F050E94711A089540
:103500000E94741A089581E080931F050E94711A29
:1035100008950E94831A0895089508950E948D1AAF
:103520000895089508950E948C1A0895CF930E94DB
:10353000911A0E947D120E94921AC0E08C2F0E9464
:10354000AB11892B31F4CF5FC530C1F780E0CF914B
:10355000089581E0FCCF85B7806885BF85B7806816
:1035600085BF08951F921FB61F9211248F939F93BA
:10357000AF93BF9380912005811113C080915905AD
:1035800090915A05A0915B05B0915C054196A11DF3
:10359000B11D8093590590935A05A0935B05B09394
:1035A0005C05BF91AF919F918F911F901FBE1F909F
:1035B000189580916105843031F10E94F2041092D7
:1035C000200588E190E020E40FB6F894A895809358
:1035D00060000FBE2093600083B7817F846083BF4B
:1035E00083B7816083BF7894889583B78E7F83BFCC
:1035F0000FB6F894A8958091600088618093600070
:10360000109260000FBE08950E94C2080E94F70445
:10361000089582E084BD93E095BD9AEF97BD8093B5
:103620006E0008952FB7F8948091590590915A052E
:10363000A0915B05B0915C052FBF08952FB7F8945A
:103640006091590570915A0580915B0590915C05D8
:103650002FBF08959C014FB7F89480915905909120
:103660005A05A0915B05B0915C054FBF821B930B7F
:10367000089578941F921FB61F9211248F939F93E1
:10368000AF93BF938091590590915A05A0915B0526
:10369000B0915C050196A11DB11D809359059093D1
:1036A0005A05A0935B05B0935C05BF91AF919F91C4
:1036B0008F911F901FBE1F90189581E08093E000AE
:1036C00080E28093D8001092C9008FE19EE40197B8
:1036D000F1F700C0000087E090EBDC0180936A0501
:1036E00090936B05A0936C05B0936D0588E19CE009
:1036F0000FB6F894A895809360000FBE9093600079
:10370000FFCF88E19CE00FB6F894A8958093600005
:103710000FBE90936000FFCF8091410508950895FA
:10372000282FCB01BA01309161053430D9F42F70C4
:103730002093E9002FEF3091E80035FD06C035ED0C
:103740003A95F1F700002A95B1F72091E80025FF9E
:1037500009C040E050E00E94911D8091E8008E7702
:103760008093E8000895BC0146E050E082E00E94AA
:10377000901B0895CF93DF93D82FC92F80912F01ED
:10378000811113C048E050E06D2F792F81E00E9435
:10379000901B80E2ED2FFC2FA1E2B5E001900D928D
:1037A0008A95E1F7DF91CF9108958091430587FDD8
:1037B00006C048E081E050E06D2F7C2FE8CF40E26A
:1037C00082E0F9CF80916005811109C00E941A1F23
:1037D0000E94771F8091E20084608093E200089548
:1037E0001092600508950E94831A089560915D0506
:1037F00081E0611101C080E00E947A1A08959091E1
:10380000610581E0943009F080E060915D050E94DF
:10381000801A089542E061EC81E00E94961E42E227
:1038200061EC82E00E94961E9091610581E09430E7
:1038300009F080E060915D050E94741A08958091FE
:103840006305893089F148F4823009F4A0C08330DF
:1038500009F45AC0813041F008958A3009F487C0D4
:103860008B3009F46CC0089580916205813A09F0AB
:103870004AC08091E800877F8093E80080916605C8
:1038800090916705892B61F060E080E090E070E046
:103890000E94E11D8091E8008B778093E8000895F5
:1038A00060E281E295E0F3CF80916205813259F5C3
:1038B0008091660590916705029728F58091E80050
:1038C000877F8093E8008091E80082FF18C0909184
:1038D000F3008091F200029731F48091F100813081
:1038E00011F0863021F48091F100809341058091A0
:1038F000E8008B778093E8000E94CA1E08958091AB
:1039000061058111E0CF089580916205813AD9F770
:103910008091660590916705892BA9F78091E80051
:10392000877F8093E8008091E80080FFFCCF809142
:103930002F018093F1008091E8008E77DBCF80919A
:103940006205813201F78091660590916705892BA8
:10395000D1F68091E800877F8093E8000E94CA1E1C
:103960008091640580932F010E94C2080895809180
:103970006205813241F68091E800877F8093E800FC
:103980000E94CA1E8091650580934205089580912A
:103990006205813A09F0B7CF8091E800877F809374
:1039A000E8008091E80080FFFCCF80914205C1CF04
:1039B00084B7877F84BF0FB6F894A8958091600084
:1039C000886180936000109260000FBE80E890E0F4
:1039D0000FB6F89480936100909361000FBE0E942F
:1039E000891A08950E941A1F0E94771FE2EEF0E0E4
:1039F00080818460808378940E94FD21089587E20D
:103A000091E00E946219089580916105853031F43A
:103A100080916105853019F00E94041B08950E9471
:103A2000D91A80915F05811599F30E94961A811524
:103A300079F30E947B1D0E94C208EACF08950E947C
:103A4000221D0895FC01DA018F2F992783309105FB
:103A5000C1F068F48130910509F43EC0029761F429
:103A60008BE390E029E036E02D933C93089581327A
:103A70009105E1F0829729F180E090E020E030E0CC
:103A8000F3CFCF019927E13059F08230910559F0F9
:103A9000E5E0F6E0892B81F7849190E09F01E4CF87
:103AA000EDEDF5E0F9CFEFEBF5E0F6CF611571053F
:103AB000C1F06130710501F789E090E024E336E060
:103AC000D3CF6115710591F061307105A9F684E8D5
:103AD00090E026E536E0C8CF82E190E024E436E0CD
:103AE000C3CF89E090E02BE136E0BECF80E490E0E8
:103AF0002AED36E0B9CF80E189BD82E189BD09B404
:103B000000FEFDCF8091D8008F7D8093D8008091FA
:103B1000E00082608093E0008091E00081FDFCCFB6
:103B20000895AF92BF92CF92DF92EF92FF920F93E0
:103B30001F93CF936C018B017A010E94E91EC82F5D
:103B4000811123C0E114F10439F0F70180819181E2
:103B5000081B190BC80ED91EA12CB12C011511057B
:103B6000A1F08091E80085FD21C08091E8008E776A
:103B70008093E800E114F10499F0F70180819181CC
:103B80008A0D9B1D91838083C5E08C2FCF911F915F
:103B90000F91FF90EF90DF90CF90BF90AF9008957E
:103BA0000E94E91E8115E9F2C82FEFCFF60181913D
:103BB0006F018093F10001501109FFEFAF1ABF0AA6
:103BC000CDCFFC019B018091680590916905861716
:103BD000970718F0672B61F0C90140E0009771F476
:103BE00041110CC08091E80082FF35C080E008954B
:103BF0008091E8008E778093E800EECF20916105F8
:103C00002115A9F12530A9F12091E80023FD2DC04F
:103C10002091E80022FDE6CF2091E80020FFDECFD2
:103C20003091F3002091F200009719F0283031050F
:103C300058F041E02830310509F040E02091E800DB
:103C40002E772093E800CACF41914093F10001976D
:103C50002F5F3F4FE9CF80916105811541F085309D
:103C600041F08091E80083FFBDCF81E0089582E0BC
:103C7000089583E00895FC019B018091680590916F
:103C800069058617970718F0672B61F0C90140E0B6
:103C9000009771F441110CC08091E80082FF36C09A
:103CA00080E008958091E8008E778093E800EECF61
:103CB000209161052115B1F12530B1F12091E80085
:103CC00023FD2EC02091E80022FDE6CF2091E800E0
:103CD00020FFDECF3091F3002091F200009719F021
:103CE0002830310558F041E02830310509F040E036
:103CF0002091E8002E772093E800CACF44914093AA
:103D0000F100319601972F5F3F4FE8CF8091610519
:103D1000811541F0853041F08091E80083FFBCCFF0
:103D200081E0089582E0089583E00895982F973008
:103D300028F08F708093E90081E008959093E90066
:103D4000242F762F50E0981731F07091EC002091DD
:103D5000ED005091F00021FD02C09F5FE8CF30914F
:103D6000EB003E7F3093EB003091ED003D7F3093D0
:103D7000ED003091EB0031603093EB007093EC007C
:103D80002093ED005093F0002091EE0027FDE5CF49
:103D900080E008958091620587FF13C08091E8005C
:103DA00082FF06C08091E8008B778093E800089539
:103DB000809161058111F2CF08958091610581158F
:103DC000D9F38091E80080FFF8CF8091E8008E77EA
:103DD000ECCF2091E4003091E50095E6A901209117
:103DE000EC00822F817020FF06C08091E80080FFE8
:103DF00006C080E008952091E80022FD1AC080915D
:103E00006105811589F0853089F08091EB0085FD91
:103E10000FC02091E4003091E50042175307F9F2FA
:103E20009A95E1F684E0089582E0089583E008958C
:103E300081E008950E94891F0E94911FE0EEF0E04A
:103E4000808181608083E8EDF0E080818F778083DE
:103E500019BCA7EDB0E08C918E7F8C9380818F7E12
:103E600080831092600508950F931F93CF93DF9383
:103E70000E94891F0E94911FC8EDD0E088818F7732
:103E8000888388818068888388818F7D888319BC36
:103E90001092610510925D0510925F0510925E050B
:103EA00000EE10E0F80180818B7F80838881816043
:103EB000888342E060E080E00E94961EE1EEF0E040
:103EC00080818E7F8083E2EEF0E08081816080835C
:103ED000808188608083F80180818E7F80838881E3
:103EE00080618883DF91CF911F910F910895E8ED54
:103EF000F0E080818F7E8083E7EDF0E0808181605B
:103F0000808384E082BF81E0809360050E94341F3B
:103F10000895E8EDF0E080818E7F80831092E200CA
:103F200008951092DA001092E10008951F920F9206
:103F30000FB60F9211242F933F934F935F936F937C
:103F40007F938F939F93AF93BF93EF93FF93809152
:103F5000E10082FF0BC08091E20082FF07C08091E8
:103F6000E1008B7F8093E1000E94FC218091DA00C8
:103F700080FF19C08091D80080FF15C08091DA00C1
:103F80008E7F8093DA008091D90080FF94C080E119
:103F900089BD82E189BD09B400FEFDCF81E0809337
:103FA00061050E94E21B8091E10080FF19C08091B1
:103FB000E20080FF15C08091E2008E7F8093E200D6
:103FC0008091E20080618093E2008091D80080625D
:103FD0008093D80019BC85E0809361050E94F61B90
:103FE0008091E10084FF29C08091E20084FF25C018
:103FF00080E189BD82E189BD09B400FEFDCF8091D9
:10400000D8008F7D8093D8008091E1008F7E8093CF
:10401000E1008091E2008F7E8093E2008091E200D7
:1040200081608093E20080915D05811509F449C0AB
:1040300084E0809361050E94FF1B8091E10083FF73
:1040400029C08091E20083FF25C08091E100877F35
:104050008093E10082E08093610510925D0580917C
:10406000E1008E7F8093E1008091E2008E7F80935B
:10407000E2008091E20080618093E20042E060E033
:1040800080E00E94961E8091F00088608093F0008E
:104090000E94F31BFF91EF91BF91AF919F918F9180
:1040A0007F916F915F914F913F912F910F900FBE34
:1040B0000F901F90189519BC109261050E94F01B7B
:1040C00072CF8091E30087FF02C083E0B2CF81E02E
:1040D000B0CF1F920F920FB60F921124EF92FF9262
:1040E0000F931F932F933F934F935F936F937F9300
:1040F0008F939F93AF93BF93CF93EF93FF9309EE6B
:1041000010E0F8018081C091EC008F70C795CC273A
:10411000C795C82B108280EFE82EF12CF701808123
:10412000877F808378940E94B420F8011082F70181
:10413000808188608083CF70F801C083FF91EF9108
:10414000CF91BF91AF919F918F917F916F915F912F
:104150004F913F912F911F910F91FF90EF900F90F2
:104160000FBE0F901F901895AAE2B0E0EAEBF0E2C4
:104170000C942B2282E695E0FC0101962091F1003F
:10418000208325E08A369207B9F70E941F1C809190
:10419000E80083FF38C080916205909163059A30F2
:1041A00090F5E92FF0E0E75DFC4D0C941722803884
:1041B00089F0823841F5809166058F70873018F557
:1041C0008093E9008091EB0085FB882780F91092AD
:1041D000E90006C080915F05880F90915E05892BEC
:1041E0009091E800977F9093E8008093F1001092FF
:1041F000F1008091E8008E7723C0811116C0809174
:104200006405813011F18091E80083FF0AC080913C
:10421000E800877F8093E8008091EB0080628093C4
:10422000EB00AA96E4E00C944722823061F780917B
:104230006405811589F01092E9008091E800877F7C
:104240008093E8000E94CA1EDECF81E0933009F01F
:1042500080E080935F05EFCF809166058F702FEF30
:10426000280F263080F68093E9002091EB0020FF94
:10427000E2CF933031F48091EB0080628093EB00C9
:10428000DACF9091EB0090619093EB0021E030E069
:10429000A90102C0440F551F8A95E2F74093EA0036
:1042A0001092EA008091EB008860E8CF8111ABCFDB
:1042B000109164051F778091E3008078812B8093B3
:1042C000E3008091E800877F8093E8000E94CA1E87
:1042D0008091E80080FFFCCF8091E30080688093AC
:1042E000E30083E0111101C082E0809361058BCF70
:1042F0008058823008F087CF8091640590916505E1
:104300008C3D53E0950799F583E08A838AE289839F
:104310004FB7F894DE01139620E03EE051E2E32F20
:10432000F0E050935700849120FF03C082958F7076
:104330003F5F8F708A30C8F0895C90E08D939D93C9
:104340002F5F243161F74FBF8091E800877F809312
:10435000E8006AE270E0CE0101960E94E11D8091C2
:10436000E8008B778093E8004ECF805DE6CF6091C8
:10437000660570916705AE014F5F5F4F0E941F1D7C
:104380008C01892B09F43FCF8091E800877F8093CF
:10439000E800B80189819A810E943B1EE0CF8038F5
:1043A00009F031CF8091E800877F8093E800809109
:1043B0005D058093F1001DCF811125CF909164059B
:1043C000923008F020CF8091E800877F8093E8004A
:1043D00090935D050E94CA1E80915D05811531F0A4
:1043E00084E0809361050E940A1C0DCF8091E30058
:1043F00087FDF6CF81E0F5CF0895CF9380916105D9
:10440000811599F08091E900C091EC008F70C795FB
:10441000CC27C795C82B1092E9008091E80083FD56
:104420000E94B420CF70C093E900CF910895EE0FA1
:10443000FF1F0590F491E02D09942F923F924F9227
:104440005F926F927F928F929F92AF92BF92CF9224
:10445000DF92EF92FF920F931F93CF93DF93CDB72D
:10446000DEB7CA1BDB0B0FB6F894DEBF0FBECDBFA5
:1044700009942A88398848885F846E847D848C8476
:104480009B84AA84B984C884DF80EE80FD800C817F
:104490001B81AA81B981CE0FD11D0FB6F894DEBF62
:1044A0000FBECDBFED010895FB01DC0104C08D916D
:1044B0000190801921F441505040C8F7881B990B96
:1044C0000895FB01DC0102C001900D924150504063
:1044D000D8F70895F999FECF92BD81BDF89A992732
:1044E00080B50895A8E1B0E042E050E00C949E222F
:1044F000262FF999FECF92BD81BDF89A019700B49D
:10450000021639F01FBA20BD0FB6F894FA9AF99A3C
:104510000FBE08950396272F0E9479220E947822C9
:10452000252F0E947922242F0C9479220196272F7F
:104530000E9479220C947822DC01CB01FC01F999CC
:10454000FECF06C0F2BDE1BDF89A319600B40D92DF
:1045500041505040B8F70895F894FFCF9B139C1337
:10456000A413A513B013B013B013B013B013B0134A
:10457000B013B013A913A813AC13AD13BE13C21319
:10458000C4131A158B152215EC14F0142615F41407
:104590002A1536150015841504153A1508153E150B
:1045A00063150C1542156A15121548155015F814A7
:1045B0002E15FC14321516154C155A157315821547
:1045C000E6141E1592157A1671167D166F16CE1604
:1045D000CE166F16CE16CE169916CE16A416AF1698
:1045E000CE16CE16CE16CE166F16CE16CE166F1669
:1045F000CE168B16CE16CE16CC16CC16CC16CC16E6
:10460000CC16CC16CC16CC16CC16BA16CE167A16FC
:104610006D16CE16CE16CE16CE16CE16CE16CE16DB
:10462000CE16CE16CE16BA16CE16CE166F16CE16DD
:10463000C116C116C116C116C116C116C116C116C2
:10464000C116BA1638193E192719321944194A19D0
:104650005019D720FD200321FD2003215621782168
:064660000321CF21DC2143
:10466600CE01280068017800140001000100010055
:1046760001001000100010001000010004000800E6
:10468600100002100516028C1BBA1BB31B8F1B01F0
:10469600F4F7F5F667663635349796949593313286
:0446A60033F0F100FC
:00000001FF
