:100000000C9438030C947F030C947F030C947F03AF
:100010000C947F030C947F030C947F030C947F0358
:100020000C947F030C947F030C94DA220C94AD2380
:100030000C947E1B0C947F030C947F030C947F0321
:100040000C947F030C947F030C947F030C947F0328
:100050000C947F030C94C91B0C947F030C947F03B6
:100060000C947F030C947F030C947F030C947F0308
:100070000C947F030C947F030C947F030C947F03F8
:100080000C947F030C947F030C947F030C947F03E8
:100090000C947F030C947F030C947F030C947F03D8
:1000A0000C947F030C947F030C947F032362617391
:1000B000656C617965723A207374616E6461726413
:1000C0006973682D7177657274790A0023626173B0
:1000D000656C617965723A2067616D696E672D7133
:1000E000676D6C77790A0023626173656C6179656D
:1000F000723A20636F64792D71676D6C77790A00AD
:100100007E2F0031001E001F00200021002200234E
:100110000024002500260027002D002E0035002B8E
:100120004414000A0010000F001A001C00090018F7
:1001300000050033002F0030002A00E300070016FE
:10014000001700110015000C000400080012000B3D
:1001500000340068000000296101001D001B00063A
:100160000019000D000E001300360037003800396A
:100170000001000551E300E2000000E1000000285A
:100180004300002C000000E60028006500E4002980
:10019000001E001F00200021002200230024002553
:1001A00000260027002D00350000002B0014000A57
:1001B0000010000F001A001C000900180005003391
:1001C000002F0030002E00E300070016001700117A
:1001D0000015000C000400080012000B0034006839
:1001E000002A00E10001001D001B00060019000D9F
:1001F000000E00130036003700380039000100E01F
:1002000000E300E20000002C000000284300002C66
:10021000000000E60028006500E40029001E001F21
:1002200000200021002200230024002500260027B2
:10023000002D002E0031002B0014001A00080015BC
:100240000017001C0018000C00120013002F0030D3
:10025000002A00390004001600070009000A000BFC
:10026000000D000E000F00330034004C002800E1A8
:100270000031001D001B00060019000500110010D0
:1002800000360037003800E5000100E000E300E23E
:100290000000002C000000035100002C000000E6CC
:1002A00000E7006500E400005C3A003B003C003DD4
:1002B000003E003F00400041004200430044004532
:1002C0000001000100010001004B000100010001DC
:1002D000002A0052004C0001000100010001000151
:1002E0000001004A004E004D000100010050005185
:1002F000004F000100010001004C00E1000100017D
:1003000000065D045D075D055D085D2900010001D3
:1003100000010001000200010001000100000029AD
:1003200000000001000000280000000100010001A1
:1003300000010001000100010001000100010001B5
:1003400000010001000100010001000100010001A5
:1003500000FD00FE00FF00010001000100F400F0BC
:1003600000F5000100010001000100010001000191
:10037000000100010001000100F200F100F30001A2
:100380000001000100010001000100010001000165
:100390000001000100010001000100010001000155
:1003A0000001000100010001000000010000000147
:1003B0000000000100000001000100010001000137
:1003C0000001000100010001000100010001000125
:1003D0000001000100010001000100010001000115
:1003E000000100010001000100038005800480017C
:1003F00000010001000100010001000100010001F5
:100400000001000100008001800280010001000164
:1004100000010001000100010001000100010001D4
:100420000001000680078008800100010001000132
:1004300000010001000000010000000100000001B7
:1004400000000001000100010001006D2600006EA7
:100450002600006F26000006220000B0000000F811
:1004600000000076200000772000007920000000C6
:10047000000000000000002A2B28000000000000FF
:100480000000000000000000000029000000002C17
:100490001E3420212224342627252E362D373827B6
:1004A0001E1F202122232425263333362E37381FC2
:1004B0000405060708090A0B0C0D0E0F1011121384
:1004C0001415161718191A1B1C1D2F3130232D3522
:1004D0000405060708090A0B0C0D0E0F1011121364
:1004E0001415161718191A1B1C1D2F3130354C0006
:1004F00000000000000000000000000000000000FC
:100500000000007E0F00D4FFFFFFC7000000781C32
:100510000343006F00640079007300200050006FF7
:10052000006C006100720069007300000026036126
:10053000006900300033002000440065007300694A
:100540000067006E002000530074007500640069AD
:10055000006F0000000403090409023B00020100CF
:10056000A0FA0904000001030101000921110100A2
:10057000012240000705810308000A090401000167
:1005800003000000092111010001228A00070582F1
:100590000320000A120110010000000803A102005C
:1005A00001000102000105010902A1018502090102
:1005B000A1000509190129051500250195057501F9
:1005C0008102950175038101050109300931158109
:1005D000257F95027508810609381581257F9501CB
:1005E00075088106050C0A38021581257F9501756D
:1005F000088106C0C005010906A101850505071986
:10060000E029E71500250195087501810205071904
:100610000029EF1500250195F075018102050819E3
:10062000012905950575019102950175039101C098
:1006300005010906A101050719E029E715002501B3
:10064000950875018102950175088101050719005A
:1006500029FF150026FF0095067508810005081979
:10066000012905950575019102950175039101C058
:1006700011241FBECFEFDAE0DEBFCDBF04B603FE0C
:1006800027C08091520590915305A0915405B091D7
:1006900055058730904BA740B04BD1F410925205CE
:1006A00010925305109254051092550514BE84B74C
:1006B000877F84BF0FB6F894A89580916000886109
:1006C00080936000109260000FBEE0E0F8E30995AF
:1006D00011E0A0E0B1E0EEEAFCE402C005900D926A
:1006E000A634B107D9F725E0A6E4B1E001C01D9218
:1006F000A235B207E1F70E9422200C94D2250C9477
:1007000000009C0181E02832334409F080E0089524
:10071000FB018130910569F082309105B1F1892B9F
:1007200009F582818823F1F080E091E00E94410583
:1007300019C082818823B1F08091460190E0019632
:100740006091000170E00E94622580934601811152
:100750000BC080E00E94FC1681E00E942D1782E011
:100760000E942D1781E00895813029F481E00E94D4
:10077000FC1680E0F2CF8230A9F782E00E94FC16DE
:1007800080E00E942D1781E0EBCF8281882351F316
:1007900080914601811103C087EE90E0C7CF813080
:1007A00019F48CEC90E0C2CF8230E1F68CEA90E054
:1007B000BDCF9C01FB019A9581159F4118F5D90188
:1007C000AA27B270832F8170B90166277470A901BE
:1007D0004427587034FF0CC08295807FAB2B09F002
:1007E0008062672B09F08064452B09F080680994CA
:1007F000AB2B09F08260672B09F08460452BB9F3BD
:100800008860F5CF0895CF93DF93EC01805E910966
:10081000089720F066E872E1209711F46CEF7FE012
:10082000CE010E94D9038C2FDF91CF910C94160F2B
:10083000CF93DF93EC010E94930FCE01805E91096C
:10084000089720F06DE872E1209711F463E070E101
:10085000CE01DF91CF910C94D903CF93DF93D82FA2
:10086000C92F0E9403048D2F9C2FDF91CF910C94F0
:10087000180481E008950C94880308950C943D04B5
:100880001F93CF93DF9300D000D00F92CDB7DEB788
:1008900049835A836B8330917D0489819A81311118
:1008A0001DC06623B9F02223A9F00E946318182FF7
:1008B000682F89819A810E940C1869817A81812F21
:1008C0000F900F900F900F900F90DF91CF911F918D
:1008D0000C94CA050E943A18182FEFCF0E94631893
:1008E00069817A81EDCFFC01262F4081518162819F
:1008F000738184810C944004CF93DF93D82FC92F48
:1009000060E00E9473046D2F7C2FDF91CF910C94D7
:100910003E04FF920F931F93CF93DF93E82FF0E0F5
:10092000E159FB4FF490C82FC695C695C695D0E007
:10093000FE01E150FB4F0491877010E0082E02C0C9
:10094000159507950A94E2F701701127C151DB4F05
:10095000FE01C491D0E002C0D595C7958A95E2F713
:10096000C170DD270115110519F081EE0E94160FE7
:10097000209719F086EE0E94160F8F2D0E94E90F26
:10098000CD2B19F086EE0E94930F012B41F081EEE2
:10099000DF91CF911F910F91FF900C94930FDF91F6
:1009A000CF911F910F91FF900895EF92FF920F93B7
:1009B0001F93CF93DF938C01F62E8AE0E82EF80187
:1009C0008491882309F456C0813009F04FC0E801B2
:1009D0002196FE018491813099F42196FE01849143
:1009E0000E94E90F8E010F5F1F4F8F2D882339F36F
:1009F000EFE9FFE03197F1F700C000008150F6CF3A
:100A0000823039F4E8012296FE0184910E94160F8B
:100A1000E9CF833039F4E8012296FE0184910E94E7
:100A2000930FE0CF8430F1F6E8012296FE01249185
:100A300080E090E0FE0131962053330B2A303105DF
:100A400050F0009779F2EFE9FFE03197F1F700C03D
:100A500000000197F6CFE89EA001E99E500D1124F9
:100A6000C901840F951F2491EF01E4CF0E948904EE
:100A7000E801B8CFDF91CF911F910F91FF90EF90D8
:100A8000089560E00C94D5040E94131C0E94BE19C6
:100A9000811102C00E94621A0E9427090C94BC07AF
:100AA0000C94BF078F7041F08A3018F4835E90E099
:100AB00008958650990B089587E290E0089508956F
:100AC0000E94A2120E945F052FEF84E39CE0215058
:100AD00080409040E1F700C000000C94ED1B0F93A4
:100AE0001F93CF93DF93EC0161E00E9473048C01AC
:100AF000BE010E94190D882389F1BE01C8010E9420
:100B00003B04882359F1BE01C8010E944D0A882385
:100B100029F1BE01C8010E940C0B8823F9F0BE0127
:100B2000C8010E94610B8823C9F0BE01C8010E9460
:100B3000390C882399F08A81882339F001158CE5D6
:100B4000180751F00F3D1C4579F0CE01DF91CF9190
:100B50001F910F910C9439040E94600580E0DF9191
:100B6000CF911F910F9108950E94621AF7CF0895B7
:100B70000C94B70581E008950C94BA05CF93C82F63
:100B80000E94B8058C2FCF910C94BC0590E080E0BA
:100B900008950895972F70E02EE0929F600D711DCB
:100BA0001124FB0196E4899FE00DF11D1124EE0F45
:100BB000FF1FED5FFE4F859194910895FC01EE0FAC
:100BC000FF1FE15FFA4F859194910895CF93DF93D2
:100BD0000E94CA050E94E006EC01811521E59207FA
:100BE000E0F5811530E5930708F09DC08F3F910532
:100BF00009F0E8F4803F910508F086C0803E910539
:100C000078F4803C910508F081C08130910521F095
:100C10000497813A910540F4CE01DF91CF91089578
:100C2000805E91090897C0F3D0E0C0E0F5CFC11510
:100C300080E4D80778F4C11520E3D20708F069C032
:100C4000CE019F70C11530E2D30730F30E94DE055C
:100C5000EC01E2CFDF70D06ADFCFC11586E5D8079F
:100C600060F5C11525E5D20708F091C0C11534E53E
:100C7000D307F0F4C11583E5D80708F074C0C11597
:100C800022E5D20708F46AC09E012370332781E071
:100C900090E002C0880F991F2A95E2F7C695C69585
:100CA00030E2C39FE0011124C82BD92BDC68B4CFFC
:100CB000DC2FCC27C46FD06AAFCFC1158AE5D80727
:100CC00088F4C11529E5D20708F06CC0CE0198550B
:100CD0008F3F910511F008F0A7CFDC2FCC27C06F14
:100CE000D06A9ACFCE0190568115904208F09CCFE1
:100CF0008D2F8F710E94780790E0982F8827882782
:100D00009F718C2BEC014CC0D06586CF805C910923
:100D10009DCFCE019927D3FF03C0EC01D86C7CCFC7
:100D2000EC01D06C79CF9C0174E0369527957A95CB
:100D3000E1F7237086958695837030E2839FC0012A
:100D40001124922BC37021E030E002C0220F331F28
:100D5000CA95E2F7822B932BEC01A8CFDC2FCC278E
:100D6000C16FD06A59CF9E012370332781E090E094
:100D700002C0880F991F2A95E2F7C695C69520E212
:100D8000C29FE0011124C82BD92BDA6845CF8C2FE4
:100D90000E947807C82FD0E0DC2FCC27CC27DF714A
:100DA000D0623ACF8C2F8F700E94780734E0D695AE
:100DB000C7953A95E1F7CF709C2FEC01D0692CCF05
:100DC000803E910599F1C8F48133910509F476C00C
:100DD00048F48932910509F46AC08A32910509F410
:100DE00074C0089589339105D1F082389105B9F026
:100DF0008533910509F454C00895843E910599F115
:100E000038F4823E9105F9F0833E910509F1089589
:100E1000863E910599F1873E9105B9F1089520919B
:100E200016052370A1F080EE90E00895209116053C
:100E300020FD52C03091170530FF09C024FF4FC07C
:100E400090E080E004C02091160522FDF7CF0895C0
:100E50002091160522FD46C03091170530FDE3CFE5
:100E600024FFF5CFEDCF2091170521FFF0CF809122
:100E7000160584FDE5CF87EE90E0089520911605D4
:100E800023FFE5CF24FDDCCFF6CF2091160523FD0F
:100E90002CC03091170531FFE3CF84EE90E0089528
:100EA0002091160525FFD3CF89E290E00895209187
:100EB000160525FFCCCF85E390E008952091160517
:100EC00026FFC5CF8AE290E008952091160526FFFF
:100ED000BECF81E390E0089589E390E0089583EE2A
:100EE00090E0089582EE90E0089586EE90E00895F7
:100EF0009091160592FF06C0282F28712830F9F42A
:100F0000877F846093FF06C0282F28712831F1F471
:100F1000877E84612091170520FF06C0382F387125
:100F20003830D9F4877F816021FF06C0282F2871CF
:100F30002831D1F4877E816194FD877E0895282F22
:100F400024712430F9F68B7F8860DCCF282F247140
:100F5000243101F78B7E8861DDCF382F317131303C
:100F600019F78E7F8860E0CF282F2171213121F77A
:100F70008E7E8861E1CF08950C94BB0708950C9490
:100F8000BE07E82FF0E0EE0FFF1FE95BFE4F808108
:100F900091810895089580EA8A95F1F70895F8946B
:100FA000E82FE295EF70F0E041A18F7021E030E092
:100FB000B90102C0660F771F8A95E2F7CB01962F21
:100FC0009095942391A392A1892B82A3789408955C
:100FD0000F931F93CF93DF9381E30E94CF0782E3A8
:100FE0000E94CF0783E30E94CF0780EF0E94CF07C4
:100FF00081EF0E94CF07C3E3D1E001E411E08991C2
:101000000E94CF070C171D07D1F78AE0E1E5F1E058
:10101000DF01982F1D929A95E9F7E7E4F1E0DF01EF
:101020001D928A95E9F785E00E949A08DF91CF9199
:101030001F910F910C944405AF92BF92DF92EF92F3
:10104000FF920F931F93CF93DF93C1E4D1E001E5AB
:1010500011E0D12CEE24E394F12C8991F894E82F3F
:10106000E295EF70F0E021A18F70A70102C0440F5C
:10107000551F8A95E2F7CA01922F982B91A392A14E
:101080008095892382A378940E94CB07A3E3B1E0E3
:1010900030E020E0B12CA12C4D91E42FE295EF70CF
:1010A000E05EF0E0808190E04F7002C095958795FA
:1010B0004A95E2F780FD39C0C701022E02C0880FB1
:1010C000991F0A94E2F7A82AB92A2F5F3F4F2E30C2
:1010D000310511F7FE01319780810E94CF07F80199
:1010E00080819181A816B90619F1B182A08281E0B0
:1010F000D82A0E5F1F4FF1E0C634DF0709F0ADCFED
:101100002D2D45E067E471E081E591E00E949B08A8
:101110000E9450058D2DDF91CF911F910F91FF906F
:10112000EF90DF90BF90AF90089580E090E0CBCF3C
:1011300080E0DECF0895FF920F931F93CF93DF934C
:10114000F82E092F162FD72FC42F222349F081E024
:1011500080935D010E94AE1B90935C0180935B01C4
:1011600080915D018823A1F080915B0190915C01E9
:101170000E94BA1B069760F0EF2DF02FA12FBD2F14
:1011800090E080E0D0E08C179D0744F010925D0164
:10119000DF91CF911F910F91FF900895219131918F
:1011A0002D933D930196EFCF0F931F93CF93DF9332
:1011B000EC01C11580ECD80710F1D05C0E94001939
:1011C000182F0E941719182B0E943C19082F0E94F3
:1011D000B80D102B127291E009F490E086958170A1
:1011E000981729F0CC0FCD2FCC1FDD0BD195CE0158
:1011F0008F779927DF91CF911F910F910895CE019D
:101200009058F8CFCF93DF9300D000D0CDB7DEB7A2
:10121000FB0197FF14C02281222389F00E94D40889
:10122000FC01EE0FFF1FEE0FFF1FE55BFB4F8591EB
:101230009591A591B491BC01CD010E94E30981E093
:101240000F900F900F900F90DF91CF9108958CE049
:1012500090E00E949025482F50E070E060E04093BD
:101260006101509362016093630170936401109275
:101270005E01813009F4089581E080936101089551
:10128000609161018CE090E00C949E2510925E01CB
:1012900081E0809361010C9440090E94B80D86950D
:1012A000817080935F0190916101913029F48823CE
:1012B00019F089E30E94E90F0E94001980936001F0
:1012C0000E941419809161018230A9F030F48111DB
:1012D0000DC082EE0E94160F02C0843099F08FE399
:1012E0009CE90197F1F700C00000089588E193E0C0
:1012F0000E942D04F4CF82EE0E94160F87E50E9413
:10130000E90FEDCF86EE0E94E90F88E1F8CF8091DA
:101310006101823019F030F481110AC082EE0E941E
:10132000930F02C0843079F0809160010C94111900
:101330008CE20E94E90F80915F018823A9F389E381
:101340000E94E90FF1CF88E2FBCFBF92CF92DF92EC
:10135000EF92FF920F931F93CF93DF936B017C016A
:10136000C7E0D0E00CE110E0BB24B394D701C60184
:10137000002E04C0B695A795979587950A94D2F745
:101380008F70D9F4B11004C00E9452050E942D0440
:10139000219704501109CF3FDC0751F4DF91CF9121
:1013A0001F910F91FF90EF90DF90CF90BF90089525
:1013B000C430D105DCF6B12CD9CF0E9452050E9471
:1013C0002D04B12CE5CFCF92DF92EF92FF92CF9315
:1013D000DF9300D000D0CDB7DEB76B017C01C11424
:1013E000D10421E1E206F10408F04CC0C114D1049B
:1013F00031E0E306F10428F080916101823009F4C4
:1014000041C00E944D09C114D10441E0E406F10439
:10141000B0F180916101811132C051E0E51AF1080B
:10142000D701C6012AE0B695A795979587952A9585
:10143000D1F79C01AD0138524F4F5F4FCA01B9013E
:101440000E94A50933E0D322EE24FF24D701C60170
:101450009452AF4FBF4F89839A83AB83BC83BC0147
:10146000CD010E94A5090F900F900F900F90DF9172
:10147000CF91FF90EF90DF90CF900C948709C70138
:10148000B601EFCF0F900F900F900F90DF91CF919B
:10149000FF90EF90DF90CF9008950F931F93CF931D
:1014A000DF93EC018B01FB018281882361F00E94B4
:1014B00000198272C13EFCE5DF07E9F060F4C03E2E
:1014C000ECE5DE07A1F0B801CE01DF91CF911F91CD
:1014D0000F910C940209CE01825E9C45059798F706
:1014E0008C2F825E809361010E944009ECCF8111B4
:1014F00004C081E003C08111FCCF8FEF0E94460938
:10150000E2CFAF92BF92CF92DF92EF92FF920F9312
:101510001F93CF93DF937C015B01C42FD22FFC017B
:1015200082818823F9F0409367010E94AE1B90935B
:1015300066018093650180E28C0F883008F061C0FD
:10154000C77081E001C0880FCA95EAF7DF91CF919B
:101550001F910F91FF90EF90DF90CF90BF90AF90D1
:101560000C94FC0F10916701141340C08091650129
:10157000909166010E94BA1B6C01B701C5010E94DF
:101580007713C816D90690F5C0E2CD0F1D17B9F034
:1015900080E2810F883040F4177081E001C0880F2D
:1015A0001A95EAF70E940310C83048F481E09D2F95
:1015B000977001C0880F9A95EAF70E94FC0F802F60
:1015C0000E94E90FC830E8F4D77081E001C0880FAD
:1015D000DA95EAF7DF91CF911F910F91FF90EF908D
:1015E000DF90CF90BF90AF900C94031080E28C0FEF
:1015F000883038F4C77081E001C0880FCA95EAF7D7
:10160000E9CFDF91CF911F910F91FF90EF90DF9085
:10161000CF90BF90AF9008950F939C01CB01243FD2
:101620004CE53407A1F190F4293DFCE53F0749F171
:101630002A3D4CE53407E9F1283D3C45C1F0FC0169
:1016400082818823E1F11092670119C0263FFCE5F1
:101650003F0719F1273F4CE5340729F1253F3C4569
:1016600071F707E225EE44EE65EF7CE505C006E282
:1016700021EE41EE68ED7CE50E94810A80E00F9149
:10168000089507E225EE45EE69ED7CE5F5CF06E22B
:1016900021EE40EE64EF7CE5EFCF06E221EE42EE74
:1016A00066EF7CE5E9CF07E225EE46EE67EF7CE5E5
:1016B000E3CF08E221E045EE6AED7CE5DDCF81E095
:1016C000DECFCF93DF93EC01FB018281882309F405
:1016D000CEC0C631FCE5DF07E0F4C2309CE5D90797
:1016E000F0F00E94D1199093170580931605C6312A
:1016F000ECE5DE0720F5C230FCE5DF0798F48091C9
:101700001605909117050E94DF190E94A21280E031
:1017100006C09E012B5F3C452930310510F3DF9157
:10172000CF910895FE01E350FC458091160581603C
:10173000E331F105B0F4EC52FA4D0C947625CE016C
:101740008B5F9C450997D8F6FE01EC5FFC45E830BD
:10175000F10590F4E951FA4D0C9476258091160527
:10176000826080931605CBCF809116058460F9CFF7
:10177000809116058860F5CF809117058160809370
:101780001705BDCF809117058260F9CF80911605AE
:101790008061E7CF809116058062E3CF80911605C6
:1017A0008064DFCF0E94A212809116058068D9CF95
:1017B000809116058C60D5CF809117058360DFCFAF
:1017C000809116058E7FCDCF809116058D7FC9CF74
:1017D000809116058B7FC5CF80911605877FC1CF7D
:1017E000809117058E7FCBCF809117058D7FC7CF56
:1017F000809116058F7EB5CF809116058F7DB1CF74
:10180000809116058F7BADCF0E94A21280911605A4
:101810008F77A7CF80911605837FA3CF809117057F
:101820008C7FADCF8091160582FB992790F921E03E
:10183000922790FB82F990FB83F993CF8091170553
:10184000982F909591708E7F892B90FB81F997CF7F
:101850000E94A21290911605892F97FB87F9805854
:1018600080CF81E00E94641A4ACF80E0FBCF81E004
:1018700056CFCF93DF93EB0186319C4511F50E9443
:1018800000199A81992399F08A7A91E009F490E0FD
:1018900090936801811109C089E20E94DB180E94BF
:1018A000551980E0DF91CF91089585E3F6CF8091BF
:1018B0006801811104C089E20E94E218F0CF85E33B
:1018C000FBCF81E0EFCF08950895089508950F9319
:1018D0001F93CF93DF93EC018B010E94630C0E9456
:1018E000A2120E94D21608831983DF91CF911F9113
:1018F0000F9108958F929F92AF92BF92CF92DF92F5
:10190000EF92FF921F93CF93DF93EC017B01142F93
:101910008090E3049090E404A090E504B090E60485
:101920000E94A2120E94D21686E0180260011124C1
:10193000CE15DF05C1F40E94A2128092E3049092BA
:10194000E404A092E504B092E604812FDF91CF91E8
:101950001F91FF90EF90DF90CF90BF90AF909F903E
:101960008F900C94640CCE010E945E12CC0DDD1D94
:10197000DFCFEF92FF920F931F93CF93DF937C0102
:10198000EB01BA01822FF801A881B98192819111EE
:1019900003C0EA16FB06A9F096E089029001112423
:1019A000AD01421B530B6417750791F086E001905F
:1019B0000D928A95E1F788819981820F931F99830F
:1019C0008883DF91CF911F910F91FF90EF90089541
:1019D000BF01DF91CF911F910F91FF90EF900C9479
:1019E000650CCF92DF92EF92FF921F93CF93DF931C
:1019F0006C01EB01142F7901842F0E94660C8AEF91
:101A00001802A0011124CC15DD0531F0FE01E40F10
:101A1000F51F828181110BC0F701D183C083DF9153
:101A2000CF911F91FF90EF90DF90CF900895EF013D
:101A3000EACF0F931F93CF939C01FB0180916B041E
:101A400081113CC0C281C11122C027304DE534074D
:101A500059F148F424304DE5340781F025303D45F7
:101A6000D9F0C1E014C028303D45D9F7609101019B
:101A7000709102014FEF83E694E01DC069E671E0CA
:101A800089E694E00E94670C81E080936B048C2FC0
:101A9000CF911F910F91089563E674E089E694E079
:101AA0000E94670C82E0F1CF609103017091040104
:101AB00041E089E691E00E947A0CE9CFA901445007
:101AC0005D454330510530F591E026303D4509F440
:101AD00090E02281291731F0813031F0823081F09D
:101AE00010926B04C0E0D3CF6091690470916A04D6
:101AF00023E031E041E089E691E00E94F10CF0CF73
:101B00006091690470916A0421E031E04FEF83E64F
:101B100094E0F3CF813071F0823009F0A2CF409190
:101B20000301509104018B012FEF69E674E083E615
:101B300094E00AC040910101509102018B0121E023
:101B400069E674E089E691E00E94B90C8ACF90932F
:101B50007104809370040895E0917004F091710411
:101B6000309721F00190F081E02D099480E00895F4
:101B7000E0917004F0917104309729F00190F081A8
:101B8000E02D0995089580E00895DC01E09170044E
:101B9000F0917104309799F080913201882351F0CF
:101BA0008091160587FF06C08C9111968C93119732
:101BB00085E08C930280F381E02DCD010994089596
:101BC000DC01E0917004F0917104309739F082E00B
:101BD0008C930480F581E02DCD0109940895209126
:101BE0006E0430916F042817390771F090936F04D9
:101BF00080936E04E0917004F0917104309721F0AD
:101C00000680F781E02D0994089520916C043091AD
:101C10006D042817390771F090936D0480936C045C
:101C2000E0917004F0917104309721F00084F18507
:101C3000E02D0994089585B7806885BF85B78068D1
:101C400085BF0895089508950C94220E08950C946C
:101C5000260E0E941B0E0E94230E0C94240E81E07F
:101C600008950C942F0E089508950E94A51B0E94BC
:101C7000E8070E94271C0C94270E9F92AF92BF92F8
:101C8000CF92DF92EF92FF920F931F93CF93DF9348
:101C900000D000D00F92CDB7DEB70E94330E0E9465
:101CA000340E0E941C080E94310E882309F46EC075
:101CB00053E7A52E54E0B52E10E000E0902E802FC3
:101CC0000E94C1077C01F501C190D1905F01C81647
:101CD000D90609F455C08091100581FD0E94CA07FC
:101CE00096012E253F2580E0CC24C394D12CA90158
:101CF0004C215D21452BF1F189839A82EC20FD2056
:101D000081E0EF2809F480E08B830E94AE1B8160A4
:101D1000782F9D838C8349815A816B81892F0E9402
:101D2000E80E000F111FF801ED58FB4F80819181E3
:101D30008C259D25918380830E949B1D0E94AC0D64
:101D400090917204891799F10E94AC0D80937204EE
:101D50000F900F900F900F900F90DF91CF911F91E8
:101D60000F91FF90EF90DF90CF90BF90AF909F903A
:101D70000C94BE058F5FCC0CDD1C8E3009F0B7CF04
:101D80000F5F1F4F0530110509F098CF8FEF898342
:101D90008A831B820E94AE1B8160782F9D838C8377
:101DA00049815A816B81892F0E94E80EC5CF0F901F
:101DB0000F900F900F900F90DF91CF911F910F9187
:101DC000FF90EF90DF90CF90BF90AF909F900895DD
:101DD000CF93DF93CDB7DEB72B970FB6F894DEBF66
:101DE0000FBECDBF4F83588769877A878B871E8246
:101DF00085E0FE013796DE01119601900D928A95DD
:101E0000E1F749815A816B817C818D819E812B967E
:101E10000FB6F894DEBF0FBECDBFDF91CF910C940B
:101E20002015FC01808191810C94A518CF93C82FB7
:101E3000882309F476C08238C1F40E94AC0D81FD7C
:101E400070C089E30E94DB180E9455192FEF81EEC4
:101E500094E0215080409040E1F700C0000089E309
:101E60000E94E218CF910C9455198338A1F40E9476
:101E7000AC0D80FD56C083E50E94DB180E94551909
:101E80002FEF81EE94E0215080409040E1F700C0B8
:101E9000000083E5E5CF8438A1F40E94AC0D82FDFB
:101EA00040C087E40E94DB180E9455192FEF81EE95
:101EB00094E0215080409040E1F700C0000087E4AA
:101EC000CFCF8CEF8C0F813AB8F48C2F0E94AE1ECE
:101ED000811127C06C2F80910501909106010E940D
:101EE0007D1A882329F08C2F0E94E2180E94551930
:101EF0008C2F0E94DB18B6CF80E28C0F883048F41C
:101F0000C77081E001C0880FCA95EAF70E940319E3
:101F1000A9CFC03F30F08C2F0E94D41CCF910C94DD
:101F2000811DCF910895882309F452C0823871F43D
:101F30000E94AC0D81FF4CC089E30E94DB180E9417
:101F4000551989E30E94E2180C945519833859F405
:101F50000E94AC0D80FF3CC083E50E94DB180E940C
:101F6000551983E5EFCF843859F40E94AC0D82FFF8
:101F70002FC087E40E94DB180E94551987E4E2CF46
:101F80009CEF980F913AF0F290E2980F983050F44D
:101F9000877091E001C0990F8A95EAF7892F0E9416
:101FA0000919D2CF9BE5980F933020F490E080E0A0
:101FB0000C94EF0D98E5980F973120F490E080E0B5
:101FC0000C94050E803F20F00E94211D0C94811D71
:101FD0000895CF93C82F0E94160FC93349F42FEFED
:101FE00087EE93E0215080409040E1F700C0000070
:101FF0008C2FCF910C94930F882321F00E9403190A
:102000000C9455190895882321F00E9409190C9405
:1020100055190895AF92BF92CF92DF92EF92FF923F
:102020000F931F93CF93DF9300D000D00F92CDB7C3
:10203000DEB76C016D837983FC01058102950F7019
:10204000128111110E9428190E94F918E82E882384
:1020500091F01123D1F08981807F803421F08D812E
:10206000805E883090F082E00E94A0190E94F918EA
:1020700091E0E82EE926A980A2949FE0A922B12C44
:10208000F501E151FA4D0C947625E12CF4CF09814C
:102090000F70F981F07F11F00295007F1123B1F0EC
:1020A000002361F08D81805E883018F01D81111150
:1020B00009C0802F0E9403190E9455198D810E942A
:1020C000160F15C0802F0E941A19F6CF8D810E941D
:1020D000930F002361F08D81805E883018F01D81A0
:1020E000111133C0802F0E9409190E94551998E0E0
:1020F000A91AB108E4E0AE16B10420F40E94AC0DB8
:102100000E94BE05EE2009F4B2C10E94F51880FDC0
:10211000AEC1F60112820E94EF180E94FC16C601A1
:102120000E945E120E94EF180F900F900F900F9078
:102130000F90DF91CF911F910F91FF90EF90DF9063
:10214000CF90BF90AF900C942D17802F0E94201934
:10215000CCCF29812F70F22E3981307F303219F0A7
:10216000F29480EFF8228D81882369F0813049F163
:10217000112391F1002351F1F601858180FF9ECF5B
:102180008F70858323C0112381F0011106C00E9446
:102190003C198F290E94FC0FAACF0130C1F70E9481
:1021A0003C198F290E944219A2CF011106C00E943A
:1021B0004B198F2D0E9403109ACF013009F497CF4D
:1021C000F6CF112329F0063008F091CF8F2DE2CF02
:1021D000053008F08CCFEDCF002359F30D81093382
:1021E00049F41FEF27EE33E0115020403040E1F773
:1021F00000C000008D810E94930F79CF8D81112343
:1022000029F00E94D41C0E94811D71CF0E94211DC3
:10221000FACF8981837009F050C0111168CF2D81E8
:10222000229526952770220F220F4D814F7050E086
:1022300070E060E0022E04C0440F551F661F771F38
:102240000A94D2F70D8180E090E0DC0104FF0FC01A
:102250008FE090E0A0E0B0E004C0880F991FAA1FB3
:10226000BB1F2A95D2F780959095A095B0951981BE
:102270001695169513701D838C019D01042B152B4B
:10228000262B372B09831A832B833C831D8169817D
:102290007A818B819C81123051F0133059F01130CA
:1022A00019F00E94721623CF0E944A1620CF0E9476
:1022B0009A161DCF0E9448161ACF112309F448C060
:1022C000098100FF14CF2D81229526952770220FBA
:1022D000220F4D814F7050E070E060E0022E04C08C
:1022E000440F551F661F771F0A94D2F70D8180E0B7
:1022F00090E0DC0104FF0FC08FE090E0A0E0B0E0D0
:1023000004C0880F991FAA1FBB1F2A95D2F780957A
:102310009095A095B09519811695169513701D830B
:102320008C019D01042B152B262B372B09831A8337
:102330002B833C831D8169817A818B819C81123042
:1023400071F0133079F0113039F00E94BB17CFCE05
:10235000198111FFCCCEB7CF0E949317C8CE0E942F
:10236000E317C5CE0E94C616C2CE09810F7009833D
:10237000112329F0802F0E94FC168D810BCF8D81B7
:102380000E94031089810E942D17B1CE2D81223F1A
:10239000A1F160F4203FE1F0213F41F1112309F464
:1023A00045C001118BCE89818F7124C03D81333F9F
:1023B00049F1343F99F7112379F109810F710983AC
:1023C000802F0E94FC1663E089810E948B198FCEBA
:1023D000112341F0053008F08ACE89818F710E9467
:1023E000621785CE063008F082CEF7CF89818F71D3
:1023F000112349F20E94FC167ACE89818F71112334
:10240000C9F3C1CF112329F089818F710E94D7169A
:102410006ECE0E94D2166BCE81E00E94A0190230CF
:1024200008F465CE82E00E94A01961CE002361F01D
:102430001D81193309F0DECE2FEF37EE83E02150F6
:1024400030408040E1F7D4CE89818F719CCF4981A3
:102450004F706D81C6010E94C6050E94BA1547CE15
:1024600049814F706D81C6010E94C90540CE0F9011
:102470000F900F900F900F90DF91CF911F910F91C0
:10248000FF90EF90DF90CF90BF90AF9008950F93A3
:102490001F93CF93DF93EC01688179818A810E9439
:1024A000B1188C010E940B180E944716B801CE018A
:1024B000DF91CF911F910F910C940A10CF93DF936E
:1024C000EC01988189812B813C81232B19F0892390
:1024D0008F3F59F4DF91CF910895CE010E944712AA
:1024E000CE01DF91CF910C947C04CE010E946F0548
:1024F0008111F3CF0E94F918882361F38A81882320
:1025000049F382E0DF91CF910C94A019882321F048
:102510000E941A190C9455190895882321F00E94DD
:1025200020190C94551908950E9428190E943919F0
:102530000E9455190E941A1E0C94811D0E94E918D0
:102540000C9494120E9414190C949E12282F892F17
:1025500082958F70903C80F48A30B0F4843020F4FF
:10256000823090F480E008958630E1F781E0283EE3
:1025700088F0213FB9F70EC08C3011F08F3091F701
:1025800093FB882780F9089581E0203F39F018F403
:10259000283E40F70895243F29F7FCCF08950E9474
:1025A000A5180C94A612CF93DF9300D000D00F9201
:1025B000CDB7DEB70F900F900F900F900F90DF9177
:1025C000CF910895CF93DF9300D000D000D0CDB746
:1025D000DEB726960FB6F894DEBF0FBECDBFDF91F3
:1025E000CF9108951F93CF93DF93E0917E0416E07F
:1025F00080917F048E1304C0DF91CF911F910895C5
:10260000CE2FD0E01E9FF0011124E058FB4F4081F7
:10261000518162817381848195810E94E2122196A9
:10262000EC2FE770E5CF4091B0045091B104609178
:10263000B2047091B3048091B4049091B5040C94E9
:10264000E2121F93CF93DF938091B504807FA9F4AA
:102650008091B204882389F080917E04C0917F0428
:102660007091B0046091B104A091B304B091B4042E
:10267000D62FD72316E0C81304C0DF91CF911F9146
:10268000089590E0109711F0DF3F19F401968770DC
:10269000F2CF189F9001199F300D1124F901E058D5
:1026A000FB4F41816413F2CF40814713EFCF42814A
:1026B0004111ECCF438154814A1B5B0B483C5105CF
:1026C00028F78091B5048F7080618093B504F9017B
:1026D000EB57FB4F80818F708061808380EB94E0AB
:1026E0000E945E12DF91CF911F910C94F21288EC40
:1026F00090E00895AF92BF92CF92DF92EF92FF9257
:102700000F931F93CF93DF93CDB7DEB72B970FB601
:10271000F894DEBF0FBECDBF8C0185E0F801DE016D
:10272000179601900D928A95E1F7D8011296EC90D8
:1027300012973C9111962C9111971396CD90DC90A5
:1027400080EBA82E84E0B82E9091B0044091B104A3
:102750006091B3047091B4046115710529F0892F5B
:1027600084238F3F09F059C1EE2009F465C18F81A0
:1027700098850E94CF12F82E882309F45DC186E067
:10278000F801A0EBB4E001900D928A95E1F780EB9F
:1027900094E00E94110F0E9421133CC18091B50466
:1027A000582F507F683C710508F09AC05111CDC078
:1027B000FE2C241324C0931322C0E11020C08F707C
:1027C00080618093B5040E94131380EB94E00E9413
:1027D0005E128091B504F80185838F2D2B960FB67C
:1027E000F894DEBF0FBECDBFDF91CF911F910F9147
:1027F000FF90EF90DF90CF90BF90AF900895CD28DD
:1028000029F0822F83238F3F09F09CC080E0F82FAE
:10281000F170FF2EE0917E0440917F0456E080FD30
:102820003CC0EE2009F44FC08091B50481608093D4
:10283000B50420E04091B0045091B1046091B2041D
:102840007091B3048091B4040E94400460EB74E082
:102850000E9481038823B9F180EB94E00E945E120C
:1028600086E0E0EBF4E0DF011D928A95E9F70E9433
:10287000131329C08E2F90E05E9FF0011124E058C1
:10288000FB4F6181261306C06081361303C062814D
:102890006E11C7CF0196E82FE770E413EBCF8F815D
:1028A00098850E94A518292F22952F70903268F0E4
:1028B000225F2F70223080F49F7059F0D801159656
:1028C0009C91907F31F4F12C88CF9F7011F0882378
:1028D000D1F3805E8830B8F3C8010E945E127DCFCC
:1028E000511166C04F81588569857A858B850E9414
:1028F000D31280EB94E00E945E1286E0D501B4CF43
:1029000086E0F801A0EBB4E001900D928A95E1F722
:1029100064CF8F8198850E94CF1281113AC0809137
:10292000B50481608093B504D7CF4F815885698500
:102930007A858B850E94D31286E0D5011D928A95F7
:10294000E9F768C081E08E2562CF241306C0931397
:1029500004C0F801EE2009F451C08F8198850E94CF
:10296000CF12882309F468C0EE2009F465C0809175
:10297000B504803270F02091B0043091B1043A83F4
:1029800029831B82DD82CC828E83CE0101960E9438
:102990005E1286E0F801A0EBB4E001900D928A95FA
:1029A000E1F70E9421130E941313FF24F39415CF23
:1029B0002413D3CF9313D1CFE110CFCFF801858368
:1029C000C8010E945E1286E0D5011D928A95E9F742
:1029D00004CF24139ECF93139CCF8091B50480FD28
:1029E0008FCF982F907F09F48BCFF8018583903F8C
:1029F00031F0982F907F905F8F70892B8583C8016D
:102A00000E945E1286E0F801A0EBB4E001900D9206
:102A10008A95E1F70E941313E0CEF090B204F6011C
:102A2000E61BF70BBF01F110B9CE683C710508F049
:102A30007CCFFE2CE110CDCFC8010E945E12B5CF35
:102A40001F93CF93DF93CDB7DEB72C970FB6F894D3
:102A5000DEBF0FBECDBF4F83588769877A878B87CC
:102A60009C87CE0107960E947A13882369F08A8595
:102A70009B85892B39F058854F81852F84238F3F83
:102A800009F071C016E05FC086E0FE013796DE01F6
:102A9000119601900D928A95E1F78F81988520918A
:102AA0007F0440917E046A857B85672B59F38923D7
:102AB0008F3F41F330E0C90101968770992748178D
:102AC000190671F40E94A21210927F0410927E04E3
:102AD00086E0E0EBF4E0DF011D928A95E9F7D2CFC2
:102AE00096E0929FD001939FB00D1124A058BB4F48
:102AF000FE01319601900D929A95E1F780937F0443
:102B00000E94F212BFCF819FC001112480589B4FB9
:102B10000E947A138823E9F0E0917E041E9FF00161
:102B20001124E058FB4F408151816281738184817F
:102B300095810E94E21280917E0490E00196877058
:102B4000992780937E0480917E0490917F0489135D
:102B5000DACF2C960FB6F894DEBF0FBECDBFDF9153
:102B6000CF911F91089569857A858B859C850E94F8
:102B7000E21288CFEF92FF920F931F93CF93DF93D0
:102B80008C01892B89F0F12CEE24E394E801219645
:102B9000F8018491843709F458C0A0F4823009F414
:102BA0003FC048F48130D1F0DF91CF911F910F9158
:102BB000FF90EF9008959CEF980F9037A8F70E9430
:102BC000160F0AC0853709F44EC09CE7980F90375E
:102BD00058F78F770E94930F8E0116C00E5F1F4F1C
:102BE000FE01849190E2980F983060F48770FE2D7A
:102BF00001C0FF0F8A95EAF78F2F0E942B190E94C0
:102C0000551902C00E94160F8F2D882309F4BECFDC
:102C1000EFE9FFE03197F1F700C000008150F5CFF8
:102C20000E5F1F4FFE01849190E2980F983050F490
:102C30008770FE2D01C0FF0F8A95EAF78F2F0E9443
:102C40003119DDCF0E94930FDFCF0E5F1F4FFE01C2
:102C5000C491CC23C9F28FE99FE00197F1F700C03E
:102C60000000C150F6CF0E5F1F4FFE01F490CCCF95
:102C700008950C9438160E9439166093E7047093F7
:102C8000E8048093E9049093EA040C949412089564
:102C90000C943B16CF93DF9300D000D0CDB7DEB7B6
:102CA00069837A838B839C838091E7049091E80405
:102CB000A091E904B091EA0429813A814B815C81B9
:102CC000282B392B4A2B5B2B29833A834B835C833C
:102CD000CA01B9010F900F900F900F90DF91CF9123
:102CE0000C943B16CF93DF9300D000D0CDB7DEB766
:102CF00069837A838B839C838091E7049091E804B5
:102D0000A091E904B091EA0429813A814B815C8168
:102D1000282339234A235B2329833A834B835C830B
:102D2000CA01B9010F900F900F900F90DF91CF91D2
:102D30000C943B16CF93DF9300D000D0CDB7DEB715
:102D400069837A838B839C838091E7049091E80464
:102D5000A091E904B091EA0429813A814B815C8118
:102D6000282739274A275B2729833A834B835C83AB
:102D7000CA01B9010F900F900F900F90DF91CF9182
:102D80000C943B160C9438160C94C2160E94C41670
:102D90006093E3047093E4048093E5049093E60465
:102DA0000C94941260E070E0CB010C94C6160F9363
:102DB0001F93CF93DF9300D000D0CDB7DEB741E0B3
:102DC00050E060E070E08A019B0104C0000F111F19
:102DD000221F331F8A95D2F709831A832B833C83E2
:102DE000C901B8010F900F900F900F90DF91CF9114
:102DF0001F910F910C94C6160F931F93CF93DF93DF
:102E000000D000D0CDB7DEB741E050E060E070E028
:102E100004C0440F551F661F771F8A95D2F7809113
:102E2000E3049091E404A091E504B091E6048A01E2
:102E30009B01082B192B2A2B3B2B09831A832B83ED
:102E40003C83C901B8010F900F900F900F90DF9154
:102E5000CF911F910F910C94C6160F931F93CF9390
:102E6000DF9300D000D0CDB7DEB741E050E060E0A6
:102E700070E004C0440F551F661F771F8A95D2F774
:102E800040955095609570958091E3049091E4048D
:102E9000A091E504B091E6048A019B01082319235F
:102EA0002A233B2309831A832B833C83C901B8015E
:102EB0000F900F900F900F90DF91CF911F910F9176
:102EC0000C94C6160F931F93CF93DF9300D000D0BE
:102ED000CDB7DEB741E050E060E070E004C0440FE1
:102EE000551F661F771F8A95D2F78091E304909152
:102EF000E404A091E504B091E6048A019B0108274F
:102F000019272A273B2709831A832B833C83C9016E
:102F1000B8010F900F900F900F90DF91CF911F91FC
:102F20000F910C94C616CF93DF9300D000D0CDB78D
:102F3000DEB769837A838B839C838091E3049091CD
:102F4000E404A091E504B091E60429813A814B8123
:102F50005C81282B392B4A2B5B2B29833A834B83AB
:102F60005C83CA01B9010F900F900F900F90DF9111
:102F7000CF910C94C616CF93DF9300D000D0CDB77D
:102F8000DEB769837A838B839C838091E30490917D
:102F9000E404A091E504B091E60429813A814B81D3
:102FA0005C81282339234A235B2329833A834B837B
:102FB0005C83CA01B9010F900F900F900F90DF91C1
:102FC000CF910C94C616CF93DF9300D000D0CDB72D
:102FD000DEB769837A838B839C838091E30490912D
:102FE000E404A091E504B091E60429813A814B8183
:102FF0005C81282739274A275B2729833A834B831B
:103000005C83CA01B9010F900F900F900F90DF9170
:10301000CF910C94C6160895E82F2EE0929FE00DF4
:1030200011248E2F877041E001C0440F8A95EAF782
:10303000E695E695E69585E0E89FF0011124EA54CF
:10304000FB4F30E020E070E05191DF011197CB01A0
:10305000022E02C0969587950A94E2F781708195B9
:103060008527842385278C932F5F3F4F253031059B
:1030700059F70895E82F2EE0929FE00D11249E2F1E
:103080009770E695E695E69585E0E89FF0011124B6
:10309000EA54FB4F50E040E080E0219130E0092EFF
:1030A00002C0369527950A94E2F721703327042E43
:1030B00001C0220F0A94EAF7822B4F5F5F4F453021
:1030C000510559F70895BF92CF92DF92EF92FF9288
:1030D0000F931F93CF93DF938C01C090E304D090A4
:1030E000E404E090E504F090E6048091E704909118
:1030F000E804A091E904B091EA04C82AD92AEA2A8E
:10310000FB2ACFE1D0E0BC2ED701C6010C2E04C0B3
:10311000B695A795979587950A94D2F780FD0EC02E
:10312000219788F7B12C8B2DDF91CF911F910F91B3
:10313000FF90EF90DF90CF90BF900895B8018C2F53
:103140000E94E605019761F3EECFCF93DF93D82F6E
:10315000C92F0E9463186D2F7C2FDF91CF910C94A3
:10316000E6051F93CF93DF93162FD72F90917D0401
:10317000992339F0862F972FDF91CF911F910C94CF
:10318000A518882391F0862F972F0E946318C82FC7
:10319000682F812F9D2F0E940C18612F7D2F8C2F5F
:1031A000DF91CF911F910C94E605862F972F0E94F7
:1031B0003A18C82FF2CF682F80910501909106012F
:1031C0000C94011B682F80910501909106010C94CD
:1031D0000C1B80910501909106010C94171B8091A6
:1031E000EB0485958595859508958091EB0487700E
:1031F00008959091EB04977081E009F480E00895C0
:1032000080910F05089590910F05982B90930F05CD
:103210000895982F909580910F05892380930F052D
:10322000089580930F05089510920F0508958091D9
:103230000E05089590910E05982B90930E05089514
:10324000982F909580910E05892380930E050895FF
:1032500010920E05089590910D05982B90930D05F1
:103260000895982F909580910D05892380930D05E1
:10327000089510920D0508958091EC040895089525
:103280000C943F199091EC04981721F08093EC0472
:103290000C94401908958091EC04882329F0109231
:1032A000EC0480E00C9440190895E0910501F09140
:1032B000060180910F058083E0910501F0910601E0
:1032C000808190910E05892B8083E0910501F0911A
:1032D0000601808190910D05892B80839091EC04EB
:1032E000992381F0E0910501F09106018081892BFD
:1032F000808380910501909106010E94691A8111D5
:103300000E944B1980910501909106010C94C50D06
:1033100008950C94881998E0899F90011124622BDC
:103320006093EB040E94FC168091EB0485958595D3
:1033300085950C9489191092EB0480E00C948919FE
:103340009091EB04809589238093EB04282F2770BC
:1033500071F4282F082E000C330B9217130639F046
:103360008595859585950E942D170C949B19089538
:103370006FEF7FEF90E080E00C94BC2590E080E060
:103380000E9498259C0181E02C3E3E4F09F080E090
:10339000089582E090E00C94902583E090E00C94F6
:1033A0009025CF9384E090E00E949025C82F81E281
:1033B00090E00E949025982F8C2FCF910895CF9365
:1033C000682FC92F84E090E00E949E256C2F81E237
:1033D00090E0CF910C949E25AB01BC018FE090E072
:1033E0000C94B025AB01BC0183E190E00C94B025B6
:1033F00060E070E0CB010C94F21960E070E0CB016A
:103400000E94EC190C94F8196CEE7EEF90E080E0CD
:103410000E94BC2560E082E090E00E949E2560E072
:1034200083E090E00E949E251092E7041092E80449
:103430001092E9041092EA0460E084E090E00E94B7
:103440009E2560E081E290E00E949E2560E085E09C
:1034500090E00E949E2560E086E090E00E949E251C
:103460006FEF87E090E00E949E2540E050E0BA01B7
:1034700088E090E00E94B02560E08DE090E00E943E
:103480009E2540E050E0BA0188E190E00E94B0251E
:1034900060E087E190E00E949E2540E050E0BA01A4
:1034A0008CE190E00E94B02560E080E290E00E9414
:1034B0009E2540E050E0BA0188E190E00E94B025EE
:1034C0000C94FD190C94041A682F8EE090E00C9473
:1034D0009E25FC01329680913201882321F0809153
:1034E00016059EE187FF96E080E0915008F408956C
:1034F00021912223D1F38F5FF8CF9C01662301F144
:10350000809132018823F1F08091160587FF1AC05F
:10351000462F469546954695603F90F4677081E04A
:1035200090E002C0880F991F6A95E2F7240F311DC1
:10353000F901228130E02823392381E0232B71F423
:1035400080E00895F9013296285F3F4F81918617F8
:1035500021F0E217F307D1F7F3CF81E008959C0142
:10356000FC0132968FEF90E04191461751F08F3F6A
:1035700019F4411101C0892F9F5F9630A9F78F3F41
:1035800009F40895280F311D87FD3A95F9016283EA
:1035900008959C01FC013296285F3F4F819186136C
:1035A00003C0DF0111971C92E217F307B9F70895E2
:1035B000FC01862F869586958695603F60F4E80F1E
:1035C000F11D677021E030E001C0220F6A95EAF733
:1035D0008281822B82830895FC01862F86958695B1
:1035E0008695603F68F4E80FF11D677081E090E018
:1035F00001C0880F6A95EAF78095928189238283BA
:10360000089520913201222329F02091160527FDEB
:103610000C94D81A0C94AF1A20913201222329F06D
:103620002091160527FD0C94EC1A0C94C91AFC0184
:10363000329680913201882351F08091160587FFE0
:1036400006C08EE1DF011D928A95E9F7089586E0B4
:10365000F9CF089508950C942A1B0E942B1B80918A
:103660004805843049F11092110588E190E020E48A
:103670000FB6F894A895809360000FBE2093600069
:1036800080E00E94BE050E942B1B83B7817F84606F
:1036900083BF83B7816083BF7894889583B78E7F1B
:1036A00083BF0FB6F894A8958091600088618093DD
:1036B0006000109260000FBE08950895CF930E949D
:1036C000291B0E941C080E945D1BC0E08C2F0E94D9
:1036D000C107892B31F4CF5FC530C1F780E0CF91AE
:1036E000089581E0FCCF08950C94731B0E94A212F0
:1036F0000E94AC0D0E94BE050C94741B1F921FB655
:103700001F9211248F939F93AF93BF9380911105C4
:10371000811113C08091120590911305A091140599
:10372000B09115054196A11DB11D8093120590938E
:103730001305A0931405B0931505BF91AF919F9108
:103740008F911F901FBE1F90189582E084BD93E05B
:1037500095BD9AEF97BD80936E0008952FB7F894AA
:103760008091120590911305A0911405B091150553
:103770002FBF08959C014FB7F89480911205909146
:103780001305A0911405B09115054FBF821B930B33
:10379000089578941F921FB61F9211248F939F93C0
:1037A000AF93BF938091120590911305A0911405DA
:1037B000B09115050196A11DB11D8093120590933E
:1037C0001305A0931405B0931505BF91AF919F9178
:1037D0008F911F901FBE1F90189581E08093E0008D
:1037E00080E28093D8001092C9008FE19EE4019797
:1037F000F1F700C0000087E090EBDC0180935205F8
:1038000090935305A0935405B093550588E19CE02F
:103810000FB6F894A895809360000FBE9093600057
:10382000FFCF0C94B8190E941C088FE39CE9019704
:10383000F1F700C000000E941C0880E00E94C10750
:1038400080FF04C00E94111C0C94ED1B0895CF93BF
:10385000DF9300D000D0CDB7DEB70E94BE19811132
:1038600002C00E94621A0E94C919809310050E942A
:10387000D11990931705809316050E94CD19282F12
:1038800030E050E040E0CA01B9010E944816809142
:10389000E3049091E404A091E504B091E6048983E7
:1038A0009A83AB83BC83BC01CD010F900F900F9026
:1038B0000F90DF91CF910C94C4168091270190E076
:1038C000880F991FFC01E15EFE4F2081815F9E4FB2
:1038D000FC01808190911E05191614F420931E0599
:1038E00090911E0597FF04C0922F919590931E050D
:1038F00090911F05191614F420931F0590911F0530
:1039000097FF03C0219520931F059091210519165B
:1039100014F4809321059091210597FF04C0982FFE
:1039200091959093210590912005191614F4809398
:1039300020059091200597FF03C081958093200575
:1039400030911E053323A1F020911F05222381F021
:1039500045EB3403C00111249923F1F090931E0527
:1039600045EB2403900111243323D1F030931F053C
:1039700030912105332379F040912005442359F0FB
:1039800025EB3203C00111249093210542039001DD
:10399000112430932005089581E080931E05E0CF27
:1039A00081E080931F05E4CFE82F40912701242F69
:1039B00030E0220F331FD901A15EBE4F9C91215FE1
:1039C0003E4FD9018C91E03F49F4919590931F05AA
:1039D000809127014817A1F10C945D1CE15FEF3045
:1039E000B8F7F0E0E150FA4D0C947625919590935C
:1039F0001E05EECF819580932005EACF81958093B7
:103A00002105E6CF80911D05816080931D05E0CFE3
:103A100080911D058260F9CF80911D058460F5CFEE
:103A200080911D058860F1CF80911D058061EDCFEB
:103A300081E080932701CCCF82E0FBCF83E0F9CFF8
:103A40000895803F39F480911F0587FF29C01092A7
:103A50001F050895813F29F480911F051816BCF3B6
:103A60000895823F39F480911E0587FF19C0109296
:103A70001E050895833F29F480911E051816BCF396
:103A80000895893F39F48091200518164CF410925E
:103A9000200508958A3F29F48091200587FDF7CFFE
:103AA00008958B3F39F48091210587FFF9CF10925B
:103AB000210508958C3F29F4809121051816BCF347
:103AC0000895843F31F480911D058E7F80931D05FC
:103AD000E7CF853F21F480911D058D7FF7CF863F8D
:103AE00021F480911D058B7FF1CF873F21F48091D8
:103AF0001D05877FEBCF883F99F680911D058F7E4E
:103B0000E5CF0E94AE1B20911E0530911F05232B8F
:103B100021F080931A0590931B0520912005309188
:103B20002105232B21F080931805909319058CE132
:103B300095E00C94E00DCF92DF92EF92FF920F93FD
:103B40001F93CF93DF9300D000D000D0CDB7DEB766
:103B500026E0ECE1F5E0CE010196DC0101900D924A
:103B60002A95E1F7C0901E05D0901F05E090200532
:103B7000F090210510921E0510921F05109220054D
:103B8000109221052C2D2D298C01B1F080911A0560
:103B900090911B050E94BA1BE0912701F0E0EE0F07
:103BA000FF1FE95EFE4F208131812817390720F47D
:103BB000C0921E05D0921F058E2D8F29B1F08091E5
:103BC0001805909119050E94BA1BE0912701F0E0B9
:103BD000EE0FFF1FE95FFE4F208131812817390763
:103BE00020F4E0922005F092210580911E0590912D
:103BF0001F05892B90912005892B90912105892BF8
:103C000011F00E94811D86E0F801ACE1B5E0019061
:103C10000D928A95E1F726960FB6F894DEBF0FBE97
:103C2000CDBFDF91CF911F910F91FF90EF90DF906B
:103C3000CF90089586E0ECE1F5E0DF011D928A95D2
:103C4000E9F708950F931F93CF93DF9300D000D02F
:103C5000CDB7DEB741E050E060E070E08A019B0143
:103C600004C0000F111F221F331F8A95D2F709834A
:103C70001A832B833C83C901B8010E9448160F9018
:103C80000F900F900F90DF91CF911F910F910C9497
:103C9000A212EBEFE80FEF3308F05AC0F0E0E25F5A
:103CA000F94D0C9476250E94621A81E00895809166
:103CB0001005807F8093100581E080932205089590
:103CC0000E946005F2CF90911005892F8E7F90FFA2
:103CD00081608093100580FDE8CF817F809310057F
:103CE000E4CF90911005892F8D7F91FF82608093A2
:103CF000100581FFDACF809110058160EFCF9091A0
:103D00001005892F8B7F92FF84608093100582FDC0
:103D1000F2CFCBCF90911005892F877F93FF8860DA
:103D20008093100583FDE7CFC0CF0E94A21290912F
:103D30001605892F97FB87F9805880931605B5CF14
:103D400080E00E94221EB1CF8953FBCF8D51F9CF65
:103D500080E0089580E008950C94AA1ECF93C82FA8
:103D600080912205882331F0813099F0109222054C
:103D700080E00DC00E9400198232D1F78C2F0E9482
:103D8000AA1E811119C08C2F0E94491E8170CF91EB
:103D900008950E940019823289F38C2F0E94AC1E74
:103DA000811112C0C93229F050F4CB3069F0C4310E
:103DB00069F71092220506C081E090E0E7CF81E02C
:103DC000C83321F380E0E2CF81E0E0CF809143056A
:103DD0000895089522E02093E9002FEF3091E80044
:103DE000215035FD06C035ED3A95F1F7000021115F
:103DF000F5CF2091E80025FF0BC050E040E066E0E1
:103E000070E00E94D7208091E8008E778093E800D0
:103E10000895CF93DF93D82FC92F80913201882343
:103E2000C1F18091160587FF34C060E282E0809383
:103E3000E9008FEF9091E800815095FD06C095ED67
:103E40009A95F1F700008111F5CF8091E80085FF88
:103E50001DC08091320170E050E040E0811104C04B
:103E600050E040E068E070E08D2F9C2F0E94D7204A
:103E70008091E8008E778093E80080E2ED2FFC2FA0
:103E8000A3E2B5E001900D928A95E1F7DF91CF9121
:103E9000089568E081E0CBCF0895809151058111AC
:103EA00009C00E945F220E94BC228091E2008460CF
:103EB0008093E200089510925105089508950895A1
:103EC0000C94761B42E061EC81E00E94DB2142E22F
:103ED00061EC82E00C94DB2180914A05893089F104
:103EE00048F4823009F49DC0833009F458C0813011
:103EF00041F008958A3009F484C08B3009F46AC017
:103F0000089580914905813A09F048C08091E80000
:103F1000877F8093E80080914D0590914E05892B15
:103F200061F460E283E295E070E00E9426218091D6
:103F3000E8008B778093E800089560E090E080E0EF
:103F4000F3CF80914905813249F580914D059091DB
:103F50004E05029718F58091E800877F8093E8006E
:103F60008091E80082FF16C09091F3008091F200EA
:103F7000029729F48091F1008B7F813021F48091A8
:103F8000F100809343058091E8008B778093E800EF
:103F90000C940F22809148058111E2CF0895809101
:103FA0004905813AD9F780914D0590914E05892BAD
:103FB000A9F78091E800877F8093E8008091E8006E
:103FC00080FFFCCF809132018093F1008091E80066
:103FD0008E77DCCF80914905813201F780914D05C4
:103FE00090914E05892BD1F68091E800877F8093D0
:103FF000E8000E940F2280914B05809332010C94BF
:10400000A21280914905813249F68091E800877FAC
:104010008093E8000E940F2280914C058093440514
:10402000089580914905813A09F0B8CF8091E80060
:10403000877F8093E8008091E80080FFFCCF80912B
:104040004405C2CF84B7877F84BF0FB6F894A89584
:1040500080916000886180936000109260000FBEC4
:1040600080E890E00FB6F89480936100909361002F
:104070000FBE0E94290E0E945F220E94BC228091E6
:10408000E20084608093E20078940E9448250E94B8
:10409000350E88E291E00E94A70D80914805853099
:1040A00039F00E943D0E0E94330E0E94340EF5CF6F
:1040B0000E942D1B80914505882379F30E945E1B89
:1040C000882359F30E94C120E8CF0C946720FC019B
:1040D000CB01DA012F2F332723303105D1F070F4D3
:1040E0002130310509F43EC02230310569F48BE3FB
:1040F00090E029E535E02D933C9308952132310578
:10410000E9F02232310521F190E080E030E020E05A
:10411000F2CFCF019927E13059F08230910559F063
:10412000E5E5F5E0892B81F7849190E09F01E3CFED
:10413000EDE2F5E0F9CFEFE0F5E0F6CF892BB9F04D
:104140006130710509F789E090E024E835E0D3CFCC
:10415000892B91F061307105B9F68AE890E026EA82
:1041600035E0C9CF82E190E024E935E0C4CF89E0B1
:1041700090E02BE635E0BFCF80E490E020E336E02E
:10418000BACF80E189BD82E189BD09B400FEFDCFCF
:104190008091D8008F7D8093D8008091E00082606C
:1041A0008093E0008091E00081FDFCCF0895AF9204
:1041B000BF92CF92DF92FF920F931F93CF93DF9323
:1041C0006C01EB018A010E942E22F82E811123C07E
:1041D0000115110539F0F80180819181C81BD90BB7
:1041E000C80ED91EB12CA12C2097A9F08091E8000F
:1041F00085FD22C08091E8008E778093E80001154C
:104200001105A1F0F801808191818A0D9B1D918398
:10421000808385E0F82E8F2DDF91CF911F910F9134
:10422000FF90DF90CF90BF90AF9008950E942E2214
:104230008823D1F2F82EEFCFF60181916F018093A0
:10424000F1002197FFEFAF1ABF0ACECFFC01CB01DF
:1042500020914F05309150052617370790F00097B1
:1042600029F42091E8002E772093E80040E00097A1
:1042700051F4411108C08091E80082FF31C080E014
:104280000895C901F3CF209148052223A9F12530D3
:10429000A9F12091E80023FD2DC02091E80022FD26
:1042A000EACF2091E80020FFE2CF3091F300209187
:1042B000F200009719F02830310558F041E028301D
:1042C000310509F040E02091E8002E772093E800C6
:1042D000CECF41914093F10001972F5F3F4FE9CF3F
:1042E00080914805882341F0853041F08091E800B5
:1042F00083FFC1CF81E0089582E0089583E00895AF
:10430000FC01CB0120914F0530915005261737074E
:1043100090F0009729F42091E8002E772093E80090
:1043200040E0009751F4411108C08091E80082FFFD
:1043300032C080E00895C901F3CF209148052223BF
:10434000B1F12530B1F12091E80023FD2EC020917C
:10435000E80022FDEACF2091E80020FFE2CF309173
:10436000F3002091F200009719F02830310558F041
:1043700041E02830310509F040E02091E8002E7737
:104380002093E800CECF44914093F10031960197FD
:104390002F5F3F4FE8CF80914805882341F085305B
:1043A00041F08091E80083FFC0CF81E0089582E072
:1043B000089583E00895982F973028F08F708093A8
:1043C000E90081E008959093E900242F762F50E0D2
:1043D000981731F07091EC002091ED005091F000B1
:1043E00021FD02C09F5FE8CF3091EB003E7F30930C
:1043F000EB003091ED003D7F3093ED003091EB000C
:1044000031603093EB007093EC002093ED005093FB
:10441000F0002091EE0027FDE5CF80E00895809127
:10442000490587FF13C08091E80082FF06C0809194
:10443000E8008B778093E80004C0809148058111E3
:10444000F2CF0895809148058823D9F38091E80040
:1044500080FFF8CF8091E8008E77ECCF2091E400C8
:104460003091E50095E6A9012091EC00822F817042
:1044700020FF06C08091E80080FF06C080E008951C
:104480002091E80022FD1AC080914805882389F018
:10449000853089F08091EB0085FD0FC02091E4000C
:1044A0003091E50042175307F9F29150E1F684E0AC
:1044B000089582E0089583E0089581E008950E94C0
:1044C000CD220E94D522E0EEF0E0808181608083E1
:1044D000E8EDF0E080818F77808319BCA7EDB0E034
:1044E0008C918E7F8C9380818F7E8083109251057A
:1044F00008950F931F93CF93DF930E94CD220E94C4
:10450000D522C8EDD0E088818F7788838881806844
:10451000888388818F7D888319BC1092480510920A
:104520004705109245051092460500EE10E0F8018F
:1045300080818B7F808388818160888342E060E016
:1045400080E00E94DB21E1EEF0E080818E7F8083BD
:10455000E2EEF0E0808181608083808188608083EA
:10456000F80180818E7F8083888180618883DF91DC
:10457000CF911F910F910895E8EDF0E080818F7E3B
:104580008083E7EDF0E080818160808384E082BFFA
:1045900081E0809351050C947922E8EDF0E0808170
:1045A0008E7F80831092E20008951092DA001092BC
:1045B000E10008951F920F920FB60F9211242F93CE
:1045C0003F934F935F936F937F938F939F93AF939B
:1045D000BF93EF93FF938091E10082FF0BC0809126
:1045E000E20082FF07C08091E1008B7F8093E100B1
:1045F0000E9447258091DA0080FF19C08091D80081
:1046000080FF15C08091DA008E7F8093DA00809160
:10461000D90080FF94C080E189BD82E189BD09B4E1
:1046200000FEFDCF81E0809348050E944D1F8091E0
:10463000E10080FF19C08091E20080FF15C08091E9
:10464000E2008E7F8093E2008091E200806180939F
:10465000E2008091D80080628093D80019BC85E088
:10466000809348050E945F1F8091E10084FF29C06C
:104670008091E20084FF25C080E189BD82E189BD8F
:1046800009B400FEFDCF8091D8008F7D8093D800C3
:104690008091E1008F7E8093E1008091E2008F7E27
:1046A0008093E2008091E20081608093E20080913B
:1046B0004705882309F449C084E0809348050E9497
:1046C000601F8091E10083FF29C08091E20083FF99
:1046D00025C08091E100877F8093E10082E0809394
:1046E0004805109247058091E1008E7F8093E1009C
:1046F0008091E2008E7F8093E2008091E2008061F1
:104700008093E20042E060E080E00E94DB21809143
:10471000F00088608093F0000E945E1FFF91EF918F
:10472000BF91AF919F918F917F916F915F914F91C9
:104730003F912F910F900FBE0F901F90189519BCAD
:10474000109248050E945B1F72CF8091E30087FDA5
:1047500002C081E0B2CF83E0B0CF1F920F920FB6BC
:104760000F921124FF920F931F932F933F934F9318
:104770005F936F937F938F939F93AF93BF93CF93E9
:10478000DF93EF93FF9309EE10E0F8018081C09171
:10479000EC00C795CC27C7958F70FC2EF82A1082A5
:1047A000C0EFD0E08881877F888378940E94F623C9
:1047B000F8011082888188608883CF2DCF70C083F4
:1047C000FF91EF91DF91CF91BF91AF919F918F9129
:1047D0007F916F915F914F913F912F911F910F9119
:1047E000FF900F900FBE0F901F9018951F93CF93BF
:1047F000DF93CDB7DEB7AA970FB6F894DEBF0FBE32
:10480000CDBF89E495E0FC0101962091F100208361
:1048100025E081359207B9F70E946C1F8091E8006E
:1048200083FF1DC18091490590914A059A3008F097
:1048300016C1E92FF0E0E35BF94D0C947625803842
:1048400099F0823809F00BC180914D058F70873047
:1048500008F005C18093E9008091EB0085FB882773
:1048600080F91092E90006C08091460590914505B7
:10487000911182609091E800977F9093E800809377
:10488000F1001092F1008091E8008E77E4C0882357
:1048900009F4D2C0823009F0E2C080914B05811149
:1048A000D5C080914D058F702FEF280F263008F06E
:1048B000D6C08093E9002091EB0020FFC7C0933061
:1048C00031F48091EB0080628093EB00BFC0909147
:1048D000EB0090619093EB0021E030E001C0220FEB
:1048E0008A95EAF72093EA001092EA008091EB00A3
:1048F0008860EACF8111B3C010914B051F7780917A
:10490000E3008078812B8093E3008091E800877F2B
:104910008093E8000E940F228091E80080FFFCCF86
:104920008091E30080688093E30082E0111183E0CE
:104930008093480594C08058823008F090C08091E0
:104940004B0590914C058C3D23E0920799F583E04F
:104950008A838AE289834FB7F894DE01139620E0B8
:104960003EE051E2E32FF0E050935700849120FFA6
:1049700003C082958F703F5F8F708A30C8F0895C6A
:1049800090E08D939D932F5F243161F74FBF80910D
:10499000E800877F8093E8006AE270E0CE0101962C
:1049A0000E9426218091E8008B778093E80057C011
:1049B000805DE6CF60914D0570914E05AE014F5F71
:1049C0005F4F0E946520BC01892B09F448C080918B
:1049D000E800877F8093E80089819A810E94802186
:1049E000E1CF8038E1F58091E800877F8093E8008F
:1049F000809147058093F10046CF811130C090919E
:104A00004B05923060F58091E800877F8093E80045
:104A1000909347050E940F2280914705882311F04B
:104A200084E005C08091E30087FDFACF81E08093A8
:104A300048050E94621F13C080914B05813079F4B4
:104A400081E0933009F080E0809345051092E90001
:104A50008091E800877F8093E8000E940F22809178
:104A6000E80083FF0AC08091E800877F8093E80018
:104A70008091EB0080628093EB00AA960FB6F894C9
:104A8000DEBF0FBECDBFDF91CF911F910895089576
:104A9000CF9380914805882399F08091E900C091D7
:104AA000EC00C795CC27C7958F70C82B1092E900F2
:104AB0008091E80083FD0E94F623CF70C093E90047
:104AC000CF91089597FB072E16F4009407D077FD39
:104AD00009D00E947C2507FC05D03EF49095819575
:104AE0009F4F0895709561957F4F0895EE0FFF1FBA
:104AF0000590F491E02D0994AA1BBB1B51E107C05E
:104B0000AA1FBB1FA617B70710F0A61BB70B881F5D
:104B1000991F5A95A9F780959095BC01CD010895EC
:104B2000F999FECF92BD81BDF89A992780B5089575
:104B3000A8E1B0E042E050E00C94C425262FF9999A
:104B4000FECF92BD81BDF89A019700B4021639F0EC
:104B50001FBA20BD0FB6F894FA9AF99A0FBE0895BD
:104B60000396272F0E949F250E949E25252F0E9495
:104B70009F25242F0C949F250196272F0E949F2567
:104B80000C949E25DC01CB01FC01F999FECF06C0F7
:104B9000F2BDE1BDF89A319600B40D9241505040FB
:104BA000B8F70895F894FFCFAE0BB40BB80BC60B53
:104BB000CA0BCE0BD20BD80BE00BE40BE80BEC0BC3
:104BC000F80BFC0B000C040C0A0C280C120CC20B8A
:104BD000F00BF40BDC0B0E0C1E0C310C350C4710DB
:104BE0004710A910A9107710FE107710771009113F
:104BF000B511C611C6112712771077103012E61CB6
:104C0000F61CF71C021D081D0C1D101D141DFB1C9D
:104C1000FA1CFE1CFF1C181D1C1D1E1D601E571EAD
:104C2000631E551EA81EA81E551EA81EA81E7F1E68
:104C3000A81E8A1E951EA81EA81EA81EA81E551EC8
:104C4000A81EA81E551EA81E711EA81EA81EA61EC0
:104C5000A61EA61EA61EA61EA61EA61EA61EA61E34
:104C6000A01EA81E601E531EA81EA81EA81EA81EB9
:104C7000A81EA81EA81EA81EA81EA81EA01EA81E0C
:104C8000A81E551EA81EA41EA41EA41EA41EA41E5B
:104C9000A41EA41EA41EA41EA01E1F2447242F254C
:0E4CA00047242F257A249B242F25F124FD2460
:104CAE000363046901ED0428006801780014000113
:104CBE0000010001000100100010001000100001A2
:104CCE000004000800100002E61E091FEA1EE91E7D
:104CDE004C1F01F4F7F5F6676636353497969495C2
:064CEE0093313233F0F1B6
:00000001FF
