:100000000C94D1020C9409030C9409030C94090379
:100010000C9409030C9409030C9409030C94090330
:100020000C9409030C9409030C94BF190C94921AB4
:100030000C94CA140C9409030C9409030C9409033E
:100040000C9409030C9409030C9409030C94090300
:100050000C9409030C9462150C9409030C94090385
:100060000C9409030C9409030C9409030C940903E0
:100070000C9409030C9409030C9409030C940903D0
:100080000C9409030C9409030C9409030C940903C0
:100090000C9409030C9409030C9409030C940903B0
:1000A0000C9409030C9409030C9409037E2F002B74
:1000B0004614000A0010000F001A001C0009001866
:1000C00000050033002E0027280700160017001136
:1000D0004315000C000443084412000B00340029AF
:1000E000211D001B00060019000D0031000E001339
:1000F00000360037003800E200000000000000E198
:100100000028452D432C0000000000000027522B42
:100110000014000A0010000F001A001C000900184B
:1001200000050033002A00E1000700160017001147
:100130000015000C000400080012000B003400E061
:10014000001D001B00060019000D002E000E0013FC
:100150000036003700380028000000000000002CA6
:100160000029282D432C0000000000000027522BFE
:100170004614001A000800150017001C0018000C97
:1001800000120013002A00272804001600070009A7
:10019000000A000B000D000E000F00330034002990
:1001A000211D001B000600190005002E0011001083
:1001B00000360037003800E200000000000000E1D7
:1001C0000028452D432C00000000000000275201AC
:1001D000001E021F02200221022202230224022505
:1001E0000235003502010001001E001F0020002121
:1001F0000022002300240025002600270001000122
:100200000001000100310031020100010001000184
:1002100000010001000100010000000000000001D9
:1002200000010001000100000000000000010001C9
:100230000001003000300227022E00010001000101
:10024000000100010001000100017E2F002F0226A5
:10025000022E020100010001000100010001000165
:100260000001000100010001000100010001000186
:100270000001000100010001000000000000000179
:10028000000100010001000000000000000100006A
:100290007C010001004B000100010001002A005216
:1002A000004C000100010001003A004A004E004DE0
:1002B0000001000100500051004F00010001003A10
:1002C000003B003C003D003E003F0040004100423A
:1002D0000043004400450001000000000000000150
:1002E0000001000100010000000000000001000109
:1002F00000DD00DE00DF00010001000100D100CDC3
:1003000000D2000100010001000100010001000114
:100310000001000100CF00CE00D00001000100016B
:1003200000010001000100010001000100010001C5
:1003300000010001000100010000000000000001B8
:1003400000010001000100000000000000010001A8
:100350000001000100010001000100010001000195
:10036000000100010001000100027E037E047E0105
:100370000001000100010001000100010001000175
:100380000001000100010001000100010001000165
:100390000001000100010001000000000000000158
:1003A0000001000100010000000000000001000049
:1003B000000000000000002A2B28000000000000C0
:1003C0000000000000000000000029000000002CD8
:1003D0001E3420212224342627252E362D37382777
:1003E0001E1F202122232425263333362E37381F83
:1003F0000405060708090A0B0C0D0E0F1011121345
:100400001415161718191A1B1C1D2F3130232D35E2
:100410000405060708090A0B0C0D0E0F1011121324
:100420001415161718191A1B1C1D2F3130354C00C6
:1004300000000000000000000000000000000000BC
:1004400000000000000000000000000000000000AC
:100450000000007E0F00D4FFFFFFC7000000780CF3
:100460000345006C0069007A00610000001E034330
:10047000006F0064007900200042006C006F00658E
:10048000006D006800610072006400000004030950
:100490000409023B00020100A0FA09040000010364
:1004A000010100092111010001224000070581031B
:1004B00008000109040100010300000009211101E5
:1004C00000012284000705820320000112010002BE
:1004D000000000080000000000000102000105010A
:1004E0000902A10185020901A100050919012908D4
:1004F00015002501950875018102050109300931B2
:100500001581257F95027508810609381581257F9B
:10051000950175088106050C0A38021581257F951D
:100520000175088106C0C005010906A101850605FF
:100530000719E029E71500250195087501810205D5
:1005400007190029EF1500250195F07501810205B5
:100550000819012905950575019102950175039109
:1005600001C005010906A101050719E029E71500E9
:10057000250195087501810295017508810105071E
:10058000190029FF150026FF009506750881000552
:1005900008190129059505750191029501750391C9
:1005A00001C011241FBECFEFDAE0DEBFCDBF04B61D
:1005B00003FE18C08091470290914802A091490221
:1005C000B0914A028730904BA740B04B59F410923B
:1005D0004702109248021092490210924A02E0E04B
:1005E000F8E3099511E0A0E0B1E0EEEEF9E302C016
:1005F00005900D92AC33B107D9F722E0ACE3B1E03E
:1006000001C01D92A734B207E1F70E941D100C949F
:10061000D21C0C9400009C01FB0123308EE73807AC
:1006200071F148F421308EE7380799F022303E47C7
:10063000C9F081E0089524303E47D9F782818823AC
:10064000C1F382E00E945D0780E00E946D0781E0B7
:1006500013C08281882369F360E08CEA90E00E94F5
:100660004512E7CF8281882321F380E00E945D0755
:1006700081E00E946D0782E00E946D07DACF8281DF
:100680008823B9F281E00E945D0780E0F2CF9C01EF
:100690002D3283E4380731F081E02832354419F0F7
:1006A00080E0089581E008958830B8F46430A8F4BB
:1006B0004C3098F4E42FF0E09CE0699FE00DF11DD0
:1006C000112490E3899FE00DF11D1124EE0FFF1F0F
:1006D000E155FF4F85919491089580E090E0089551
:1006E0000E945403089581E008950E940B03089529
:1006F00008950E9478030895A5E0B0E0E2E8F3E0F1
:100700000C94521C49835A833091430189819A8108
:10071000311119C0662399F0222389F00E94240820
:10072000182F682F89819A810E94000869817A8137
:10073000812F0E94AA0D2596E3E00C946E1C0E9466
:100740001208182FF3CF0E94240869817A81F1CF13
:10075000FC01262F408151816281738184810E9436
:100760007C03089581E00895CF93DF93D82FC92F9C
:1007700060E00E94A8036D2F7C2F0E947903DF9117
:10078000CF9108950E94C40E08950E94C80E089546
:1007900008950E94CC060E94C8032FEF84E39CE0DA
:1007A000215080409040E1F700C0000008950E9471
:1007B000C9030E94861508950E94C9030E94AA15C4
:1007C00008950F931F93CF93DF93EC0161E00E9494
:1007D000A8038C01BE010E9475038823E1F0BE01CD
:1007E000C8010E9447138823B1F0BE01C8010E94CE
:1007F000AD12882381F08A818823C1F001308CE713
:10080000180789F003308CE7180759F001151C47C9
:1008100069F40E94D70380E0DF91CF911F910F917F
:1008200008950E94970B0E94DC03F5CFCE010E9431
:100830007303F2CF0E94A6140E94440408950E94FC
:1008400048040E94AB14089508950E94240408955A
:1008500081E008950895CF93DF93D82F0E94280454
:10086000C82F882319F08D2F0E942A048C2FDF9126
:10087000CF9108950895CF93C82F0E9425048C2FFF
:100880000E942B04CF91089580E00E943B040895BC
:100890000E9492130E943B040895CF930E949213EA
:1008A000C82F80913E018C1779F0C0933E010E94C1
:1008B000361560933F0170934001809341019093FE
:1008C00042018C2F0E943B04CF910895ABE0B0E031
:1008D000ECE6F4E00C944F1C142F4F83052F58873F
:1008E00069877A878B87EA84FB8461110E94940B65
:1008F0001E8285E0FE013796DE01119601900D9271
:100900008A95E1F7E114F10461F449815A816B8120
:100910007C818D819E810E949F0A2B96E6E00C943B
:100920006B1C10231F3F89F3CE0101960E94B20376
:100930008111EBCFF2CFFC01808191810E9456089A
:100940000895662329F00E949F100E94391108958E
:100950000E94E310FACFCF93C82F8823B9F08CEF11
:100960008C0F813AA8F46C2F8091000190910101C5
:100970000E94C913882329F08C2F0E94360B0E94F5
:10098000450B8C2F0E942E0B0E94450BCF91089592
:1009900080E28C0F883048F4C77081E001C0880F76
:1009A000CA95EAF70E94750BEFCF83E38C0F833172
:1009B00068F761E08C2F0E94A104E8CF8823F1F052
:1009C0009CEF980F913A28F40E94360B0E94450B39
:1009D000089590E2980F983050F4877091E001C02C
:1009E000990F8A95EAF7892F0E947B0BEFCF93E34B
:1009F000980F933118F460E00E94A10408951F93AA
:100A0000CF93DF93182FEB010E94AB04209739F4AA
:100A1000812F0E94DE04DF91CF911F9108958FE90D
:100A20009FE00197F1F700C000002197EFCF60E051
:100A300070E0893311F460E570E00E94FF040895CE
:100A4000882321F00E94750B0E94450B089588238E
:100A500021F00E947B0B0E94450B0895CF93DF93FA
:100A6000FC01D62F6281958192959F70272F229548
:100A70002F70283009F47FC0E0F42430A0F4872FD1
:100A80008F70223030F1707F703211F08295807F4C
:100A9000D13009F055C0662309F44CC0963030F4CB
:100AA0000E94200503C0253009F461C0DF91CF9179
:100AB0000895293009F4D6C02A5F2F702230B0F78C
:100AC000D23F09F0E1C0872F8F71662309F403C17B
:100AD000D8C0C82F703110F0C295C07F6623A9F02E
:100AE000CC2359F080E28D0F883010F0D11109C06D
:100AF0008C2F0E94750B0E94450B8D2F0E94AB041A
:100B0000D5CF8C2F0E94860BF6CF8D2F0E94DE044E
:100B1000CC2361F280E28D0F883010F0D11106C035
:100B20008C2F0E947B0B0E94450BC0CF8C2F0E9404
:100B30008C0BF9CF953008F0B9CF0E942705B6CFBE
:100B4000662321F0992309F4ABCFD7CF9923A9F3DA
:100B5000D93349F42FEF87EE93E021508040904045
:100B6000E1F700C000008D2F0E94DE049FCF8D2F83
:100B70000E94A1049BCF872F8370811139C061111E
:100B800029C04D2F429546954770440F440F2D2F95
:100B90002F7030E0042E02C0220F331F0A94E2F7B8
:100BA00080E090E0D4FF09C08FE090E002C0880FA1
:100BB000991F4A95E2F78095909576957695737092
:100BC000822B932B723071F0733079F0713039F0E1
:100BD0000E942D070E9492130E943B0467CF0E943F
:100BE0002407F8CF0E943607F5CF0E942107F2CFE5
:100BF000662361F170FFEECF4D2F42954695477009
:100C0000440F440F2D2F2F7030E0042E02C0220F0E
:100C1000331F0A94E2F780E090E0D4FF09C08FE030
:100C200090E002C0880F991F4A95E2F78095909551
:100C3000769576957370822B932B723069F07330B2
:100C400071F0713031F00E949807C4CF823010F2F9
:100C5000D3CF0E948F07BECF0E94A107BBCF0E94B7
:100C60004507B8CFC72FCF70662339F08C2F0E946D
:100C70005D078D2F0E942005ADCF8D2F0E94270587
:100C80008C2F0E946D07A6CFD33F60F4D03F99F020
:100C9000D13FE9F0662379F1992351F18D2F0E941C
:100CA000AB0498CFD33FD1F06111F6CF911130C092
:100CB000872F8F71E6CF662341F0953008F08ACFF9
:100CC000872F8F710E947F0785CF9530F7CF872FB1
:100CD0008F716623B1F20E945D077CCF662329F0F5
:100CE000872F8F710E94510775CF0E944C0772CFDA
:100CF000872F8F71F0CF9923D9F2D93349F42FEF91
:100D000087EE93E0215080409040E1F700C0000062
:100D10008D2F0E94DE045ECF0F931F93CF93DF933E
:100D2000EC01688179818A810E9463088C010E94AC
:100D3000AA070E942007B801CE010E942E05DF916C
:100D4000CF911F910F910895CF93DF93EC0198817C
:100D500089812B813C81232B71F089238F3F59F0AE
:100D6000CE010E94E103882331F0CE010E948C065F
:100D7000CE010E94B403DF91CF9108950E94940B9D
:100D80000E94450B0E9456110E94391108950E943D
:100D90003E0B0E94BE0608950E94830B0E94C70668
:100DA0000895282F92959F70963091F060F4925F8D
:100DB0009F70923030F481E0203F79F030F4283E8B
:100DC00030F080E008959A5FF3CF243FD1F7089583
:100DD00081E0283EE0F3213FF9CF0895FC018381B3
:100DE0009481892B61F08181908189238F3F39F033
:100DF000808191810E9456080E94D106089580E06A
:100E00000895A5E0B0E0E7E0F7E00C94531C2596C8
:100E1000E2E00C946F1CA6E0B0E0E1E1F7E00C9496
:100E2000531C2696E2E00C946F1C08950E9415074F
:100E300008950E94160790935F0180935E010895C4
:100E400008950E941907089520915E0130915F0175
:100E5000822B932B0E941907089520915E013091F7
:100E60005F01822393230E941907089520915E0158
:100E700030915F01822793270E94190708950E94ED
:100E8000150708950E943F0708950E944207909316
:100E90005D0180935C01089580E090E00E94450729
:100EA000089521E030E0A90102C0440F551F8A9542
:100EB000E2F7CA010E944507089521E030E002C030
:100EC000220F331F8A95E2F780915C0190915D01BA
:100ED000822B932B0E944507089521E030E002C049
:100EE000220F331F8A95E2F72095309580915C019F
:100EF00090915D01822393230E944507089521E08C
:100F000030E002C0220F331F8A95E2F780915C0126
:100F100090915D01822793270E94450708952091B3
:100F20005C0130915D01822B932B0E94450708954F
:100F300020915C0130915D01822393230E9445073B
:100F4000089520915C0130915D01822793270E94D2
:100F50004507089508959B01677091E001C0990FBE
:100F60006A95EAF763E0369527956A95E1F7220FCF
:100F7000331F220F331FFA01E20FF31F40E050E04E
:100F8000682F70E08191DF0111979B01042E02C050
:100F9000369527950A94E2F7217021952827292371
:100FA00028272C934F5F5F4F4430510559F7089520
:100FB0009C01982F977083E0369527958A95E1F7E5
:100FC000220F331F220F331FFB01E20FF31F40E0FC
:100FD00050E080E0219130E0092E02C0369527953F
:100FE0000A94E2F721703327042E01C0220F0A94DD
:100FF000EAF7822B4F5F5F4F4430510559F7089550
:10100000282F862F943068F42C3058F4622F70E02B
:101010002CE0929F600D711D112444E451E00E9468
:10102000AB070895292F943068F48C3058F490E081
:1010300064E471E03CE0239F800D911D11240E9427
:10104000D807089580E00895A0E0B0E0EAE2F8E073
:101050000C944C1C8C01E0905C01F0905D0180913F
:101060005E0190915F01E82AF92ACFE0D0E0CC241C
:10107000C394D12CC6010C2E02C0880F991F0A946C
:10108000E2F78E219F21892B49F4219798F7B12C03
:101090008B2DCDB7DEB7E9E00C94681CBC2EB801EF
:1010A0008C2F0E94B60D019781F3F2CFCF93DF937F
:1010B000D82FC92F0E9424086D2F7C2F0E94B60DB7
:1010C000DF91CF9108951F93CF93DF93162FD72FE2
:1010D00090914301992341F0862F972F0E94560843
:1010E000DF91CF911F910895882381F0862F972F4C
:1010F0000E942408C82F682F812F9D2F0E9400086E
:10110000612F7D2F8C2F0E94B60DEACF862F972F4F
:101110000E941208C82FF4CF0F931F93CF93E09132
:101120006001C6E0809161018E1304C0CF911F91D0
:101130000F9108950E2F10E0CE9FF0011124EE596B
:10114000FE4F4081518162817381848195810E942B
:101150000B07F8013196E770E5CF4091920150916D
:101160009301609194017091950180919601909105
:1011700097010E940B0708951F93CF93DF938091EF
:101180009701803108F04CC080919401882309F4C4
:1011900047C080916001209161016091920130917E
:1011A0009301C0919501D0919601732F7623281752
:1011B000B9F190E0209709F443C016E07F3F09F4AD
:1011C0003FC0189FF001199FF00D1124DF01AE59A7
:1011D000BE4F11964C91119734132CC04C9146136D
:1011E00029C012964C91129741111EC013964D9131
:1011F0005C914C1B5D0B46395105E0F480919701E1
:101200008F70806180939701E959FE4F80818F70C4
:101210008061808382E991E00E94A4060E948C088C
:10122000DF91CF911F910895019687709927281318
:10123000C8CFF6CF0196877099272813BFCFF0CF7C
:1012400001968770B4CFABE0B0E0E9E2F9E00C942E
:10125000481C8C0185E0F801DE01179601900D9283
:101260008A95E1F7D801BC901196AC90119712962F
:101270007C9012971396CD90DC9060E082E991E02B
:101280000E94A80322E9822E21E0922E3091920141
:1012900040919301609195017091960161157105DE
:1012A00009F439C1242F23232F3F09F434C1E090DE
:1012B0009401F601E61BF70BEE2009F4EEC0209135
:1012C0009701E639F10508F0C5C0D80111965C9187
:1012D0001197203108F07FC0F72C541314C04C91A3
:1012E000431311C0711018C02F7020612093970113
:1012F0000E94AD08C4010E94A40680919701F801E4
:101300008583F12C63C0C114D104F9F02B2D2A215F
:101310002F3FD9F07720E1F02091970121602093B1
:10132000970162E971E00E944703882351F382E943
:1013300091E00E94A40686E0E2E9F1E0DF011D925F
:101340008A95E9F70E94AD08DCCF7720D1F2E4CF8F
:10135000E09160018091610196E0E81312C08F81F5
:1013600098850E945608292F22952F709032E8F414
:101370009F70992311F0882349F1805E883030F105
:1013800018C02E2F30E09E9FF0011124EE59FE4F21
:1013900041814A1106C040814B1103C04281411175
:1013A000B0CFF9013196E770D8CF225F2F7022308D
:1013B00028F0C8010E94A406FE2C08C09F70992343
:1013C000E1F2D80115969C919031B8F68F2D2B96AD
:1013D000EDE00C94641C541313C0F8018081831356
:1013E0000FC071100DC02583C8010E94A40686E0BD
:1013F000F801A2E9B1E001900D928A95E1F725C0CC
:10140000C8010E94EE06882309F479C0772009F408
:1014100076C080919701803270F0209192013091D6
:1014200093013A8329831B82DD82CC828E83CE0195
:1014300001960E94A40686E0F801A2E9B1E00190BD
:101440000D928A95E1F70E94BC080E94AD08FF2426
:10145000F394BCCF203170F44F81588569857A852B
:101460008B850E94010782E991E00E94A40686E034
:10147000D40165CFF80181814813C2CF80818313E5
:10148000BFCF7110BDCF2583C8010E94A40686E09E
:10149000D4011D928A95E9F7DACFE639F10598F57E
:1014A000772069F1F801818148131FC0808183137F
:1014B0001CC08091970180FD0FC0803168F085834A
:1014C000807F803F09F490CF8581982F907F905F37
:1014D0008F70892B858388CF86E0F801A2E9B1E07F
:1014E00001900D928A95E1F7B2CFC8010E94EE06F5
:1014F0008111A1CF80919701816080939701C801EC
:101500000E94A406A4CF4F81588569857A858B8572
:101510000E940107ACCF772091F3C8010E94EE062C
:10152000882369F386E0F801A2E9B1E001900D9209
:101530008A95E1F782E991E00E949B0484CFACE0B8
:10154000B0E0E5EAFAE00C94521C4F8358876987B3
:101550007A878B879C87CE0107960E942309882370
:10156000D9F08A859B85892B61F058854F81852F1D
:1015700084238F3F31F069857A858B859C850E9415
:101580000B0716E08091600190916101891344C0BE
:101590002C96E3E00C946E1C86E0FE013796DE018B
:1015A000119601900D928A95E1F78F81988520918F
:1015B0006101409160016A857B85672B11F3892366
:1015C0008F3FF9F230E0C90101968770992750E00A
:1015D0008417950771F40E94CC0610926101109255
:1015E000600186E0E2E9F1E0DF011D928A95E9F70A
:1015F000C8CF96E0929FD001939FB00D1124AE59B1
:10160000BE4FFE01319601900D929A95E1F78093BD
:1016100061010E948C08B5CF189FC00111248E591A
:101620009E4F0E942309882309F4B2CFE091600104
:101630001E9FF0011124EE59FE4F408151816281BD
:101640007381848195810E940B078091600190E0F5
:101650000196877099278093600194CF682F8091BD
:101660000001909101010E9450140895682F80910B
:101670000001909101010E945E1408958091000183
:10168000909101010E946C140895CF93DF93E09133
:101690000001F09101018091D9018083E091000166
:1016A000F091010180819091D801892B8083C091B4
:1016B0000001D091010140E250E068E971E0CE0103
:1016C0000E947A1C892B59F080E2FE01A8E9B1E062
:1016D00001900D928A95E1F7CE010E949F13DF9150
:1016E000CF9108958091D90108959091D901982BB7
:1016F0009093D9010895982F90958091D9018923CD
:101700008093D90108951092D90108959091D8013C
:10171000982B9093D8010895982F90958091D80197
:1017200089238093D80108951092D80108956FEF0E
:101730007FEF80E090E00E94BC1C089580E090E084
:101740000E94981C9C0181E0273E3E4F09F080E0FA
:10175000089582E090E00E94901C089583E090E05C
:101760000E94901C089584E090E00E94981C0895C7
:10177000AB01BC018FE090E00E94B01C0895AB016A
:10178000BC0183E190E00E94B01C089560E070E02D
:10179000CB010E94BF0B089560E070E0CB010E9476
:1017A000B80B0E94C60B089567EE7EEF80E090E0D4
:1017B0000E94BC1C60E082E090E00E949E1C60E001
:1017C00083E090E00E949E1C10925F0110925E01E7
:1017D00060E074E184E090E00E94BC1C60E086E080
:1017E00090E00E949E1C6FEF87E090E00E949E1C9C
:1017F00040E050E0BA0188E090E00E94B01C60E058
:101800008DE090E00E949E1C40E050E0BA0188E12B
:1018100090E00E94B01C60E087E190E00E949E1C76
:1018200040E050E0BA018CE190E00E94B01C60E022
:1018300070E080E290E00E94BC1C40E050E0BA0101
:1018400088E190E00E94B01C0E94CC0B08950E9499
:10185000D40B08950E9436156093E8017093E90156
:101860008093EA019093EB016093E4017093E501AA
:101870008093E6019093E7010895089508950E94EA
:101880003E0C089508950E94420C089582EA9EE05D
:101890000E9488130E943D0C0E943F0C089581E035
:1018A00008950E944F0C0895089508950E94540CC5
:1018B0000E94550C08950E94A50E0E943A040895B6
:1018C0000E9421150E947A0F0E945B0C0E94430C1B
:1018D0000895A5E0B0E0EFE6FCE00C94481C0E94FF
:1018E000900F2CEDA22E21E0B22E650110E0F60142
:1018F000E190F1906F01812F0E94CB0E1F5F143099
:1019000009F44BC0E816F90691F38091EC0181FDD2
:101910000E94D40E0E94510C782EF12C8F2D0E9423
:10192000CB0E8C01F501C190D1905F018C159D0506
:1019300069F1C826D926E12C88248394912CC6010C
:1019400088219921892BC1F07720B1F0E982FA82B0
:1019500021E0C80188219921892B09F420E02B83FB
:101960000E942A158160782F9D838C8349815A813A
:101970006B81892F0E946604E394880C991CFCE01B
:10198000EF12DDCFF501329711830083F39484E0E9
:10199000F812C4CF0E942A0C22C0E816F90609F0FA
:1019A000B4CF0E942A158C018091DA019091DB015D
:1019B00008171907A1F08FEF89838A831B820E9481
:1019C0002A158160782F9D838C8349815A816B8190
:1019D000892F0E9466041093DB010093DA010E94B4
:1019E00071110E944D042596EDE00C94641CCF9378
:1019F000DF930E94BB0DEC01811520E5920790F565
:101A0000811540E4940708F064C0803E9105A0F081
:101A1000811550E29507F0F08D2F8F710E945F0EB7
:101A200090E0982F882788279F718C2BEC01D0623B
:101A3000CE01DF91CF9108958D3C910508F047C00C
:101A400081309105A9F30497813A910588F3C0E0AC
:101A5000D0E0EECF8F3F910509F050F7805E9109FD
:101A60000797F4CF803642E5940710F5803452E5AD
:101A7000950708F045C0C03282E5D80738F0CF712D
:101A8000D0E0DC2FCC27C16FD06AD2CF8C2FC1150C
:101A900022E5D20708F58F710E945F0E95E0D6957A
:101AA000C7959A95E1F7CF709C2FEC01D069C0CF14
:101AB000803842E59407C8F1805C9245809738F6FB
:101AC000DC2FCC27CC27DF71C06FD06AB1CFD065B7
:101AD000AFCFDF70D06AACCF8695869550E2859FF8
:101AE000C0011124C37021E030E0A90102C0440FFD
:101AF000551FCA95E2F7EA01C82BD92BDD6898CFAC
:101B000086958695877050E2859FC0011124C37029
:101B100021E030E0A90102C0440F551FCA95E2F749
:101B2000EA01C82BD92BDC6883CF86958695877010
:101B300050E2859FC0011124C37021E030E0A9016B
:101B400002C0440F551FCA95E2F7EA01C82BD92BF2
:101B5000DA686ECF462F672F743028F44C3018F4B3
:101B60000E947003089580E090E008950E94AA0DFD
:101B70000E94F70C0895803E9105D1F1C8F481339D
:101B8000910509F47FC048F48932910509F46FC0CA
:101B90008A32910509F47DC0089589339105E1F0F9
:101BA00082389105C9F08533910509F45BC0089529
:101BB000843E9105D1F148F4823E910531F1833E96
:101BC000910541F181EE90E00895863E9105C1F1C5
:101BD000873E9105E1F1089520912402237021119F
:101BE00065C02091250223FF14C089E290E008958A
:101BF0002091240220FD43C03091250230FF09C00E
:101C000024FF4EC080E090E008952091240222FD40
:101C1000F7CF08952091240222FD45C0309125027E
:101C200030FD44C024FFF5CFEDCF2091250221FFE8
:101C3000F0CF8091240284FDE5CF87EE90E00895F7
:101C40002091240223FFE5CF24FDDCCFF6CF2091A5
:101C5000240223FD2EC03091250231FFE3CF84EE14
:101C600090E008952091240225FFD3CFBECF20918C
:101C7000240225FD21C02091250223FFCACF89E33C
:101C800090E008952091240226FFC3CF8AE290E0DD
:101C900008952091240226FFBCCF81E390E00895AF
:101CA00083EE90E0089582EE90E0089580EE90E05B
:101CB000089586EE90E0089585E390E0AACF909194
:101CC000240292FF06C0282F28712830F9F4877F5C
:101CD000846093FF06C0282F28712831F1F4877E95
:101CE00084612091250220FF06C0382F38713830DA
:101CF000D9F4877F816021FF06C0282F2871283101
:101D0000D1F4877E816194FD877E0895282F247108
:101D10002430F9F68B7F8860DCCF282F24712431A2
:101D200001F78B7E8861DDCF382F3171313019F7A3
:101D30008E7F8860E0CF282F2171213121F78E7EA0
:101D40008861E1CF80E0089508950E949E0B811183
:101D500002C00E94270C0E94A90B8093EC010E94F4
:101D6000B30B90932502809324020E94A40E0E943C
:101D7000AE0B90E00E94210780915C0190915D0183
:101D80000E944207089508950E94C30E0895089581
:101D90000E94C70E0895E82FF0E0EE0FFF1FE25DEE
:101DA000FD4F808191810895089580EA8A95F1F729
:101DB000089500C008950E94D50E0895F894E82F64
:101DC000E295EF70F0E041A18F7021E030E0B901C1
:101DD00002C0660F771F8A95E2F7CB01962F909588
:101DE000942391A392A1892B82A378940895CF93F1
:101DF000DF9387E30E94DE0E80EF0E94DE0E81EF0C
:101E00000E94DE0E85E90E94DE0ECCE2D1E08991CF
:101E10008F3F11F00E94DE0E81E0C833D807B9F77A
:101E2000DF91CF910895A0E0B0E0E9E1FFE00C94EC
:101E30004C1CEC01B62E062F10E0C801885C9E4FAA
:101E40007C01FC0180818F3F09F44FC0F894E82F9A
:101E5000E295EF70F0E091A18F7021E030E001C0D9
:101E6000220F8A95EAF7892F822B81A382A12095E0
:101E7000282322A378940E94D90EECE2F1E041E0FD
:101E800050E0C12CD12C21912F3F89F0A22FA29597
:101E9000AF70A05EB0E08C9190E02F7002C095957D
:101EA00087952A95E2F781709A01882311F020E046
:101EB00030E0C22AD32A440F551F81E0E833F807E7
:101EC00011F7F70180818F3F11F00E94DE0E61E073
:101ED000C114D10409F460E08B2D0E94DB0E000FC9
:101EE000111FC00FD11FD982C882CDB7DEB7E9E07C
:101EF0000C94681C0E94F70E88E0EEE2F2E0DF012D
:101F0000982F1D929A95E9F7E6E2F2E0DF011D9223
:101F10008A95E9F784E00E94CD0F0E94C2030895DC
:101F2000A8E0B0E0E6E9FFE00C94501CFE01319619
:101F300088E0DF011D928A95E9F710E0FE2E0F2F51
:101F4000612F8F2D902F0E94130F1F5F1430C1F748
:101F500048E050E06F2D702F86E292E00E947A1CDC
:101F600021E0892B81F420E044E06EE272E086E219
:101F700092E00E94CE0F182F0E94C503812F289651
:101F8000E5E00C946C1C88E0EF2DF02FA6E2B2E0A7
:101F900001900D928A95E1F7E7CF0895A0E0B0E0B7
:101FA000E4EDFFE00C944E1CD82EE92EF62E072F00
:101FB000C42F222349F081E08093EF010E942A156B
:101FC0009093EE018093ED011091EF01111107C084
:101FD00010E0812FCDB7DEB7E7E00C946A1C80914A
:101FE000ED019091EE010E945315059788F3D0E022
:101FF000CC0FDD1FAE016D2D7E2D8F2D902F0E94F9
:102000007A1C892B51F0AE016D2D7E2D8F2D902FD6
:102010000E94871C1092EF01DCCF10E0FBCF0E94E2
:102020001C170E94600C0E94291708950E942E1709
:102030000E94690C0E94481708950E94C3140E94D0
:1020400002170E94460C0E940F100E9416100E9458
:10205000560CFBCF8091220190E0880F991FFC0164
:10206000E65EFE4F2081865F9E4FFC01808190914D
:10207000F601191614F42093F6019091F60197FFDA
:1020800004C0922F91959093F6019091F701191643
:1020900014F42093F7019091F70197FF03C0219565
:1020A0002093F7019091F901191614F48093F90126
:1020B0009091F90197FF04C0982F91959093F901A1
:1020C0009091F801191614F48093F8019091F80199
:1020D00097FF03C081958093F8013091F601332377
:1020E000B1F02091F701222391F045EB3403C001B8
:1020F0001124892F911101C081E08093F60145EBF5
:102100002403900111243323B1F03093F70130916F
:10211000F901332379F04091F801442359F025EB7C
:102120003203C00111249093F9014203900111245C
:102130003093F801089581E08093F701E8CF609132
:102140002201462F50E0440F551FFA01E65EFE4F74
:102150002081465F5E4FFA0190818D3C49F42195C4
:102160002093F7018091220168130E942A1008959C
:10217000E2E3E80FE231B0F7F0E0EC52F34E0C94FA
:102180003D1C21952093F601EDCF91959093F80198
:10219000E9CF91959093F901E5CF815D990B21E00D
:1021A00030E001C0220F8A95EAF78091F501822B79
:1021B0008093F501D7CF81E080932201D3CF82E0D5
:1021C000FBCF83E0F9CF8D3C39F48091F70187FF95
:1021D00029C01092F70108958E3C29F48091F701EF
:1021E0001816BCF308958F3C39F48091F60187FFEF
:1021F00019C01092F6010895803D29F48091F601EE
:102200001816BCF30895893D39F48091F801181629
:102210004CF41092F80108958A3D29F48091F80158
:1022200087FDF7CF08958B3D39F48091F90187FF41
:10223000F9CF1092F90108958C3D29F48091F901AC
:102240001816BCF308959FE2980F983058F7815DF7
:10225000990B21E030E0A90102C0440F551F8A9577
:10226000E2F7CA0180959091F50189238093F501E9
:10227000D9CF0E942A152091F6013091F701232B26
:10228000222321F08093F2019093F3012091F80131
:102290003091F901232B222321F08093F0019093B8
:1022A000F10184EF91E00E94BA13089586E0E4EF13
:1022B000F1E0DF011D928A95E9F70895FC01828122
:1022C00081110DC0838181110AC08481811107C0F1
:1022D00081E09581911101C080E08170089581E0D5
:1022E000FCCFA6E0B0E0E7E7F1E10C94511C86E0FA
:1022F000E4EFF1E09E012F5F3F4FD90101900D9275
:102300008A95E1F71092F6011092F7011092F80108
:102310001092F9018B819C81892B89018823C1F05E
:102320008091F2019091F3010E945315E0912201F6
:10233000F0E0EE0FFF1FEE5EFE4F20813181281787
:10234000390730F48B818093F6018C818093F701FB
:102350008E819D81892B8823C1F08091F00190911D
:10236000F1010E945315E0912201F0E0EE0FFF1FF2
:10237000EE5FFE4F208131812817390730F48D81BF
:102380008093F8018E818093F901B80184EF91E088
:102390000E947E14811105C084EF91E00E945E11BD
:1023A00081110E94391186E0F801A4EFB1E001909B
:1023B0000D928A95E1F72696E4E00C946D1CFF924D
:1023C0000F931F93CF93DF93E82FF0E0E155FC4F7D
:1023D000F490282F26952695269530E0F901E15BAB
:1023E000FB4F94918770F901E15CFB4F049110E081
:1023F000082E02C0159507950A94E2F7017011277F
:10240000F901E15DFB4FC491D0E0082E02C0D595E3
:10241000C7950A94E2F7C170DD27E92FF0E002C00A
:10242000F595E7958A95E2F7E0FD10C001151105D5
:10243000C1F48F2D0E941705CD2B19F08CE20E945C
:102440001705CDB7DEB7E5E00C946C1C81EE0E9459
:10245000AB040115110579F48F2D0E94170581EE4B
:1024600007C086EE0E94AB048F2D0E94170586EEF2
:102470000E94DE04E1CF86EE0E94AB048F2D0E9405
:10248000170586EE0E94DE04EACFFF920F931F939A
:10249000CF93DF938C01F62EF8018491882309F401
:1024A00057C0813009F050C0E8012196FE018491A7
:1024B000813099F42196FE0184910E9417058E01C6
:1024C0000F5F1F4F8F2D882339F3EFE9FFE031971E
:1024D000F1F700C000008150F6CF823039F4E801F6
:1024E0002296FE0184910E94AB04E9CF833039F437
:1024F000E8012296FE0184910E94DE04E0CF843040
:10250000F1F6E8012296FE01849120E030E04AE0F5
:10251000FE0131968053990B8A30910550F021507D
:10252000310968F28FE99FE00197F1F700C00000E0
:10253000F6CF429FB001439F700D11249C01260FDE
:10254000371F8491EF01E4CF0E94DF11E801B7CF7C
:10255000CDB7DEB7E5E00C946C1CCF93DF93EB01B5
:1025600086319C4719F50E94720B9A819923A1F03C
:102570008A7A91E0811101C090E09093FA0188235A
:1025800049F085E30E942E0B0E94450B80E0DF910D
:10259000CF91089589E2F6CF8091FA01882321F046
:1025A00085E30E94360BF0CF89E2FBCF81E0EFCFCD
:1025B0000F931F93CF93DF93C42FD22FFC018281FF
:1025C0008823C9F04093FD010E942A159093FC01D5
:1025D0008093FB0180E28C0F883040F4C77081E06B
:1025E00001C0880FCA95EAF70E942005DF91CF91BC
:1025F0001F910F9108951091FD0114133CC080911B
:10260000FB019091FC010E9453158639910598F5C4
:10261000C0E2CD0F1D1741F180E2810F883040F4F8
:10262000177081E001C0880F1A95EAF70E9427050C
:10263000C83020F0802F0E941705D8CF91E08D2F51
:10264000877001C0990F8A95EAF7892F0E942005AB
:10265000802F0E941705D77081E001C0880FDA959E
:10266000EAF70E942705C2CF802F0E941705C830C5
:1026700008F0BCCFF0CF80E28C0F883008F0B6CFE6
:10268000C77081E001C0880FCA95EAF7EACF0F93BF
:10269000FC01CB01E851FC47E730F10590F5EA5128
:1026A000F34E0C943D1C06E221EE41EE6AE17CE71C
:1026B0000E94D81280E00F91089507E225EE45EEC2
:1026C0006BE17CE7F5CF06E221EE40EE68E17CE7C6
:1026D000EFCF07E225EE44EE69E17CE7E9CF06E2C1
:1026E00021EE42EE6CE17CE7E3CF07E225EE46EE19
:1026F0006DE17CE7DDCF08E221E045EE6EE17CE7AD
:10270000D7CFFB01828181111092FD0181E0D3CFEF
:1027100090933D0180933C0108959093FF01809335
:10272000FE010895E091FE01F091FF01309729F03C
:102730000190F081E02D0995089580E00895DC0175
:10274000E091FE01F091FF01309799F080912B010B
:10275000882351F08091240287FF06C08C91119646
:102760008C93119786E08C930280F381E02DCD014C
:1027700009950895DC01E091FE01F091FF01309789
:1027800039F082E08C930480F581E02DCD0109952C
:1027900008959C01662301F180912B018823F1F0BB
:1027A0008091240287FF1AC0462F4695469546958C
:1027B000603F90F4677081E090E002C0880F991F3D
:1027C0006A95E2F7240F311DF901228130E02823B8
:1027D000392381E0232B71F480E00895F9013296CA
:1027E000285F3F4F8191861721F0E217F307D1F759
:1027F000F3CF81E008959C01FC0132968FEF90E0C9
:102800004191461751F08F3F19F4411101C0892FB2
:102810009F5F9630A9F78F3F09F40895280F311D67
:1028200087FD3A95F901628308959C01FC01329677
:10283000285F3F4F8191861303C0DF0111971C92DF
:10284000E217F307B9F70895FC01862F8695869560
:102850008695603F60F4E80FF11D677021E030E07D
:1028600001C0220F6A95EAF78281822B8283089544
:10287000FC01862F869586958695603F80F4E80F4B
:10288000F11D677081E090E09C0102C0220F331FB0
:102890006A95E2F7B90160958281682362830895A1
:1028A00020912B01222339F02091240227FF03C01D
:1028B0000E94241408950E94FB13089520912B0177
:1028C000222339F02091240227FF03C00E943814EC
:1028D00008950E9415140895FC01329680912B01F1
:1028E000882351F08091240287FF06C08EE1DF012A
:1028F0001D928A95E9F7089586E0F9CF46E050E009
:102900000E947A1C9C0181E0232B09F480E0089549
:1029100008950E94881408958F5F809300020E949A
:102920008914089583E0809300020E948914089519
:102930000E948C14089581E0809300020E94891403
:1029400008950E949B140895089508950E94A51467
:102950000895089508950E94A4140895CF930E94A5
:10296000A9140E94900F0E94AA14C0E08C2F0E940C
:10297000CB0E892B31F4CF5FC430C1F780E0CF910B
:10298000089581E0FCCF85B7806885BF85B78068F2
:1029900085BF08951F921FB61F9211248F939F9396
:1029A000AF93BF9380910102811113C080913602D1
:1029B00090913702A0913802B09139024196A11D41
:1029C000B11D8093360290933702A0933802B093E2
:1029D0003902BF91AF919F918F911F901FBE1F90A1
:1029E000189580913E02843031F10E941A041092B1
:1029F000010288E190E020E40FB6F894A895809356
:102A000060000FBE2093600083B7817F846083BF26
:102A100083B7816083BF7894889583B78E7F83BFA7
:102A20000FB6F894A895809160008861809360004B
:102A3000109260000FBE08950E94CC060E941F04F1
:102A4000089582E084BD93E095BD9AEF97BD809391
:102A50006E0008952FB7F894809136029091370256
:102A6000A0913802B09139022FBF0895A4E0B0E0E0
:102A7000ECE3F5E10C94531C8FB7F89420913602E7
:102A800030913702409138025091390229833A83BC
:102A90004B835C838FBF69817A818B819C81249673
:102AA000E2E00C946F1C9C014FB7F89480913602C1
:102AB00090913702A0913802B09139024FBF821B2A
:102AC000930B089578941F921FB61F9211248F9331
:102AD0009F93AF93BF938091360290913702A0915C
:102AE0003802B09139020196A11DB11D80933602C2
:102AF00090933702A0933802B0933902BF91AF91FF
:102B00009F918F911F901FBE1F90189581E0809319
:102B1000E00080E28093D8001092C9008FE19EE42B
:102B20000197F1F700C0000087E090EBDC01809393
:102B3000470290934802A0934902B0934A0288E169
:102B40009CE00FB6F894A895809360000FBE909318
:102B50006000FFCF88E19CE00FB6F894A8958093C1
:102B600060000FBE90936000FFCF80912202089515
:102B70000895282FCB01BA0130913E023430E1F4A0
:102B80002F702093E9002FEF3091E80035FD07C04A
:102B900035ED3A95F1F7000021502111F5CF209144
:102BA000E80025FF09C040E050E00E94BB1780917B
:102BB000E8008E778093E8000895BC0146E050E07D
:102BC00082E00E94B9150895CF93DF93D82FC92FC3
:102BD00080912B01811113C048E050E06D2F792FB7
:102BE00081E00E94B91580E2ED2FFC2FA2E0B2E057
:102BF00001900D928A95E1F7DF91CF910895809130
:102C0000240287FD06C048E081E050E06D2F7C2F54
:102C1000E8CF40E282E0F9CF80913D02811109C006
:102C20000E9443190E94A0198091E2008460809361
:102C3000E200089510923D0208950E949B140895A9
:102C400060913A0281E0611101C080E00E9492141B
:102C5000089590913E0281E0943009F080E0609107
:102C60003A020E949814089542E061EC81E00E94CB
:102C7000BF1842E261EC82E00E94BF1890913E02D0
:102C800081E0943009F080E060913A020E948C1457
:102C9000089580914002893089F148F4823009F426
:102CA000A0C0833009F45AC0813041F008958A30C1
:102CB00009F487C08B3009F46CC0089580913F02FD
:102CC000813A09F04AC08091E800877F8093E8004C
:102CD0008091430290914402892B61F060E080E092
:102CE00090E070E00E940A188091E8008B77809352
:102CF000E800089560E282E092E0F3CF80913F0225
:102D0000813259F58091430290914402029728F54F
:102D10008091E800877F8093E8008091E80082FF3F
:102D200018C09091F3008091F200029731F48091E5
:102D3000F100813011F0863021F48091F100809310
:102D400022028091E8008B778093E8000E94F318BC
:102D500004C080913E028111E0CF089580913F022E
:102D6000813AD9F78091430290914402892BA9F7C7
:102D70008091E800877F8093E8008091E80080FFE1
:102D8000FCCF80912B018093F1008091E8008E7739
:102D9000DBCF80913F02813201F780914302909115
:102DA0004402892BD1F68091E800877F8093E80068
:102DB0000E94F3188091410280932B010E94CC065F
:102DC000089580913F02813241F68091E800877F2B
:102DD0008093E8000E94F3188091420280932302BE
:102DE000089580913F02813A09F0B7CF8091E800C1
:102DF000877F8093E8008091E80080FFFCCF80917E
:102E00002302C1CF84B7877F84BF0FB6F894A895FB
:102E100080916000886180936000109260000FBE16
:102E200080E890E00FB6F894809361009093610081
:102E30000FBE0E94A11408950E9443190E94A01978
:102E4000E2EEF0E080818460808378940E94231C0D
:102E5000089583E291E00E948D13089580913E02CF
:102E6000853031F480913E02853019F00E941C15A6
:102E700008950E94F11480913C02882399F30E94E6
:102E8000AE14882379F30E94A5170E94CC06EACFDE
:102E900008950E944C170895FC01CB01DA012F2FF1
:102EA000332723303105E1F058F421303105C9F1E1
:102EB00022303105D9F180E090E020E030E01EC002
:102EC0002132310521F122323105A9F7892BC1F1D7
:102ED0006130710581F784E890E02EED34E00EC09A
:102EE000CF019927E13069F08230910569F0EDE872
:102EF000F4E0892B01F7849190E09F012D933C939E
:102F00000895EDE6F4E0F7CFEFE5F4E0F4CF892B98
:102F100091F06130710579F689E090E02CEB34E0B6
:102F2000EDCF82E190E02CEC34E0E8CF8BE390E051
:102F300021E934E0E3CF89E090E023EA34E0DECF1A
:102F400080E490E022E635E0D9CF80E189BD82E1DE
:102F500089BD09B400FEFDCF8091D8008F7D80939C
:102F6000D8008091E00082608093E0008091E000D2
:102F700081FDFCCF0895AF92BF92CF92DF92FF9276
:102F80000F931F93CF93DF936C01EB018A010E9493
:102F90001219F82E811123C00115110539F0F8011D
:102FA00080819181C81BD90BC80ED91EA12CB12CD0
:102FB0002097A9F08091E80085FD22C08091E8006B
:102FC0008E778093E80001151105A1F0F80180814A
:102FD00091818A0D9B1D9183808385E0F82E8F2D32
:102FE000DF91CF911F910F91FF90DF90CF90BF9015
:102FF000AF9008950E9412198823E1F2F82EEFCFC6
:10300000F60181916F018093F1002197FFEFAF1AD4
:10301000BF0ACECFFC019B018091450290914602F0
:103020008617970718F0672B61F0C90140E00097F9
:1030300071F441110CC08091E80082FF35C080E03E
:1030400008958091E8008E778093E800EECF20917C
:103050003E022223A9F12530A9F12091E80023FDA9
:103060002DC02091E80022FDE6CF2091E80020FF4E
:10307000DECF3091F3002091F200009719F0283054
:10308000310558F041E02830310509F040E0209149
:10309000E8002E772093E800CACF41914093F100D9
:1030A00001972F5F3F4FE9CF80913E02882341F087
:1030B000853041F08091E80083FFBDCF81E0089525
:1030C00082E0089583E00895FC019B018091450210
:1030D000909146028617970718F0672B61F0C90197
:1030E00040E0009771F441110CC08091E80082FF2C
:1030F00036C080E008958091E8008E778093E800E4
:10310000EECF20913E022223B1F12530B1F1209182
:10311000E80023FD2EC02091E80022FDE6CF20919B
:10312000E80020FFDECF3091F3002091F2000097FD
:1031300019F02830310558F041E02830310509F008
:1031400040E02091E8002E772093E800CACF449118
:103150004093F100319601972F5F3F4FE8CF809168
:103160003E02882341F0853041F08091E80083FFE2
:10317000BCCF81E0089582E0089583E00895982F00
:10318000973028F08F708093E90081E00895909344
:10319000E900242F762F50E0981731F07091EC0061
:1031A0002091ED005091F00021FD02C09F5FE8CF1B
:1031B0003091EB003E7F3093EB003091ED003D7F8E
:1031C0003093ED003091EB0031603093EB00709361
:1031D000EC002093ED005093F0002091EE0027FDCD
:1031E000E5CF80E0089580913F0287FF13C0809172
:1031F000E80082FF06C08091E8008B778093E800AA
:1032000004C080913E028111F2CF089580913E0268
:103210008823D9F38091E80080FFF8CF8091E800FF
:103220008E77ECCF2091E4003091E50095E6A9017E
:103230008091EC008170882331F08091E80080FF5C
:1032400006C080E008952091E80022FD1BC0809117
:103250003E02882391F0853091F08091EB0085FD4E
:1032600010C02091E4003091E5004217530701F3AC
:1032700091509111DCCF84E0089582E0089583E0BD
:10328000089581E008950E94B2190E94BA19E0EEF3
:10329000F0E0808181608083E8EDF0E080818F77CD
:1032A000808319BCA7EDB0E08C918E7F8C938081D8
:1032B0008F7E808310923D0208950F931F93CF93CA
:1032C000DF930E94B2190E94BA19C8EDD0E088813C
:1032D0008F77888388818068888388818F7D8883C1
:1032E00019BC10923E0210923A0210923C021092C7
:1032F0003B0200EE10E0F80180818B7F80838881A3
:103300008160888342E060E080E00E94BF18E1EEC7
:10331000F0E080818E7F8083E2EEF0E0808181604A
:103320008083808188608083F80180818E7F8083A4
:10333000888180618883DF91CF911F910F910895DB
:10334000E8EDF0E080818F7E8083E7EDF0E0808122
:103350008160808384E082BF81E080933D020E948F
:103360005D190895E8EDF0E080818E7F80831092F2
:10337000E20008951092DA001092E10008951F9281
:103380000F920FB60F9211242F933F934F935F9399
:103390006F937F938F939F93AF93BF93EF93FF931D
:1033A0008091E10082FF0BC08091E20082FF07C0A4
:1033B0008091E1008B7F8093E1000E94221C80912C
:1033C000DA0080FF19C08091D80080FF15C080917D
:1033D000DA008E7F8093DA008091D90080FF94C05C
:1033E00080E189BD82E189BD09B400FEFDCF81E0A5
:1033F00080933E020E940C168091E10080FF19C06C
:103400008091E20080FF15C08091E2008E7F809362
:10341000E2008091E20080618093E2008091D80018
:1034200080628093D80019BC85E080933E020E94A0
:1034300020168091E10084FF29C08091E20084FF82
:1034400025C080E189BD82E189BD09B400FEFDCFC0
:103450008091D8008F7D8093D8008091E1008F7E8D
:103460008093E1008091E2008F7E8093E200809162
:10347000E20081608093E20080913A02882309F49F
:1034800049C084E080933E020E9429168091E100A9
:1034900083FF29C08091E20083FF25C08091E10075
:1034A000877F8093E10082E080933E0210923A028F
:1034B0008091E1008E7F8093E1008091E2008E7F19
:1034C0008093E2008091E20080618093E20042E01C
:1034D00060E080E00E94BF188091F00088608093D7
:1034E000F0000E941D16FF91EF91BF91AF919F9147
:1034F0008F917F916F915F914F913F912F910F909D
:103500000FBE0F901F90189519BC10923E020E949A
:103510001A1672CF8091E30087FF02C083E0B2CF1A
:1035200081E0B0CF1F920F920FB60F921124FF923D
:103530000F931F932F933F934F935F936F937F93BB
:103540008F939F93AF93BF93CF93DF93EF93FF93AB
:1035500009EE10E0F8018081C091EC00C795CC27FE
:10356000C7958F70FC2EF82A1082C0EFD0E08881BA
:10357000877F888378940E94DB1AF8011082888103
:1035800088608883CF2DCF70C083FF91EF91DF914A
:10359000CF91BF91AF919F918F917F916F915F91EB
:1035A0004F913F912F911F910F91FF900F900FBE60
:1035B0000F901F901895AAE2B0E0E1EEFAE10C94AA
:1035C000521C8FE392E0FC0101962091F1002083D0
:1035D00022E087349207B9F70E9449168091E800EB
:1035E00083FF38C080913F02909140029A3090F55D
:1035F000E92FF0E0E351F34E0C943D1C803889F044
:10360000823841F5809143028F70873018F580939E
:10361000E9008091EB0085FB882780F91092E90092
:1036200006C080913B0290913C0291118260909182
:10363000E800977F9093E8008093F1001092F100EA
:103640008091E8008E7723C0811116C080914102DD
:10365000813011F18091E80083FF0AC08091E80079
:10366000877F8093E8008091EB0080628093EB007D
:10367000AA96E3E00C946E1C823061F780914102BF
:10368000882389F01092E9008091E800877F809379
:10369000E8000E94F318DECF81E0933009F080E06B
:1036A00080933C02EFCF809143028F702FEF280F61
:1036B000263080F68093E9002091EB0020FFE2CFD6
:1036C000933031F48091EB0080628093EB00DACF8D
:1036D0009091EB0090619093EB0021E030E0A90124
:1036E00002C0440F551F8A95E2F74093EA001092FA
:1036F000EA008091EB008860E8CF8111ABCF109198
:1037000041021F778091E3008078812B8093E30052
:103710008091E800877F8093E8000E94F3188091F1
:10372000E80080FFFCCF8091E30080688093E30095
:1037300083E0111101C082E080933E028BCF80585C
:10374000823008F087CF80914102909142028C3DF7
:1037500053E0950799F583E08A838AE289834FB71E
:10376000F894DE01139620E03EE051E2E32FF0E012
:1037700050935700849120FF03C082958F703F5F64
:103780008F708A30C8F0895C90E08D939D932F5F95
:10379000243161F74FBF8091E800877F8093E80074
:1037A0006AE270E0CE0101960E940A188091E8005A
:1037B0008B778093E8004ECF805DE6CF6091430227
:1037C00070914402AE014F5F5F4F0E944917BC01E8
:1037D000892B09F43FCF8091E800877F8093E80030
:1037E00089819A810E946418E1CF803809F032CF34
:1037F0008091E800877F8093E80080913A0280936F
:10380000F1001ECF811126CF90914102923008F035
:1038100021CF8091E800877F8093E80090933A025F
:103820000E94F31880913A02882331F084E080935B
:103830003E020E9434160ECF8091E30087FDF6CF42
:1038400081E0F5CF0895CF9380913E02882399F0CF
:103850008091E900C091EC00C795CC27C7958F7087
:10386000C82B1092E9008091E80083FD0E94DB1ACA
:10387000CF70C093E900CF910895EE0FFF1F059020
:10388000F491E02D09942F923F924F925F926F92A4
:103890007F928F929F92AF92BF92CF92DF92EF92E0
:1038A000FF920F931F93CF93DF93CDB7DEB7CA1B61
:1038B000DB0B0FB6F894DEBF0FBECDBF09942A888C
:1038C000398848885F846E847D848C849B84AA8434
:1038D000B984C884DF80EE80FD800C811B81AA81C1
:1038E000B981CE0FD11D0FB6F894DEBF0FBECDBF8C
:1038F000ED010895FB01DC0104C08D910190801958
:1039000021F441505040C8F7881B990B0895FB01E2
:10391000DC0102C001900D9241505040D8F708954B
:10392000F999FECF92BD81BDF89A992780B5089587
:10393000A8E1B0E042E050E00C94C41C262FF999B5
:10394000FECF92BD81BDF89A019700B4021639F0FE
:103950001FBA20BD0FB6F894FA9AF99A0FBE0895CF
:103960000396272F0E949F1C0E949E1C252F0E94B9
:103970009F1C242F0C949F1C0196272F0E949F1C94
:103980000C949E1CDC01CB01FC01F999FECF06C012
:10399000F2BDE1BDF89A319600B40D92415050400D
:1039A000B8F70895F894FFCFB010C110C210CD1031
:1039B000CD10CD10CD10CD10CD10CD10CD10C61026
:1039C000C510C910CA10DB10DF10E11063136913B2
:1039D00053135D136F1375137B13FE1A241B2A1BDD
:0E39E000241B2A1B7D1B9F1B2A1BF51B021C90
:1039EE00B8012800680178001400010001000100F0
:1039FE00010010001000100010000100040008006B
:103A0E00100002B515E415DD15B81501F5F6F73100
:0C3A1E00333635C69766949037F0F1956A
:00000001FF
